{
  "_format": "hh-sol-artifact-1",
  "contractName": "CErc20",
  "sourceName": "contracts/CErc20.sol",
  "address": "0xbdC2A1a7239fac713EBF5dAb69931b37FE4c9B9A",
  "abi": [
    {
      "inputs": [],
      "name": "AcceptAdminPendingAdminCheck",
      "type": "error"
    },
    {
      "inputs": [
        {
          "internalType": "uint256",
          "name": "actualAddAmount",
          "type": "uint256"
        }
      ],
      "name": "AddReservesFactorFreshCheck",
      "type": "error"
    },
    {
      "inputs": [],
      "name": "BorrowCashNotAvailable",
      "type": "error"
    },
    {
      "inputs": [
        {
          "internalType": "uint256",
          "name": "errorCode",
          "type": "uint256"
        }
      ],
      "name": "BorrowComptrollerRejection",
      "type": "error"
    },
    {
      "inputs": [],
      "name": "BorrowFreshnessCheck",
      "type": "error"
    },
    {
      "inputs": [
        {
          "internalType": "uint256",
          "name": "errorCode",
          "type": "uint256"
        }
      ],
      "name": "LiquidateAccrueBorrowInterestFailed",
      "type": "error"
    },
    {
      "inputs": [
        {
          "internalType": "uint256",
          "name": "errorCode",
          "type": "uint256"
        }
      ],
      "name": "LiquidateAccrueCollateralInterestFailed",
      "type": "error"
    },
    {
      "inputs": [],
      "name": "LiquidateCloseAmountIsUintMax",
      "type": "error"
    },
    {
      "inputs": [],
      "name": "LiquidateCloseAmountIsZero",
      "type": "error"
    },
    {
      "inputs": [],
      "name": "LiquidateCollateralFreshnessCheck",
      "type": "error"
    },
    {
      "inputs": [
        {
          "internalType": "uint256",
          "name": "errorCode",
          "type": "uint256"
        }
      ],
      "name": "LiquidateComptrollerRejection",
      "type": "error"
    },
    {
      "inputs": [],
      "name": "LiquidateFreshnessCheck",
      "type": "error"
    },
    {
      "inputs": [],
      "name": "LiquidateLiquidatorIsBorrower",
      "type": "error"
    },
    {
      "inputs": [
        {
          "internalType": "uint256",
          "name": "errorCode",
          "type": "uint256"
        }
      ],
      "name": "LiquidateRepayBorrowFreshFailed",
      "type": "error"
    },
    {
      "inputs": [
        {
          "internalType": "uint256",
          "name": "errorCode",
          "type": "uint256"
        }
      ],
      "name": "LiquidateSeizeComptrollerRejection",
      "type": "error"
    },
    {
      "inputs": [],
      "name": "LiquidateSeizeLiquidatorIsBorrower",
      "type": "error"
    },
    {
      "inputs": [
        {
          "internalType": "uint256",
          "name": "errorCode",
          "type": "uint256"
        }
      ],
      "name": "MintComptrollerRejection",
      "type": "error"
    },
    {
      "inputs": [],
      "name": "MintFreshnessCheck",
      "type": "error"
    },
    {
      "inputs": [
        {
          "internalType": "uint256",
          "name": "errorCode",
          "type": "uint256"
        }
      ],
      "name": "RedeemComptrollerRejection",
      "type": "error"
    },
    {
      "inputs": [],
      "name": "RedeemFreshnessCheck",
      "type": "error"
    },
    {
      "inputs": [],
      "name": "RedeemTransferOutNotPossible",
      "type": "error"
    },
    {
      "inputs": [],
      "name": "ReduceReservesAdminCheck",
      "type": "error"
    },
    {
      "inputs": [],
      "name": "ReduceReservesCashNotAvailable",
      "type": "error"
    },
    {
      "inputs": [],
      "name": "ReduceReservesCashValidation",
      "type": "error"
    },
    {
      "inputs": [],
      "name": "ReduceReservesFreshCheck",
      "type": "error"
    },
    {
      "inputs": [
        {
          "internalType": "uint256",
          "name": "errorCode",
          "type": "uint256"
        }
      ],
      "name": "RepayBorrowComptrollerRejection",
      "type": "error"
    },
    {
      "inputs": [],
      "name": "RepayBorrowFreshnessCheck",
      "type": "error"
    },
    {
      "inputs": [],
      "name": "SetComptrollerOwnerCheck",
      "type": "error"
    },
    {
      "inputs": [],
      "name": "SetInterestRateModelFreshCheck",
      "type": "error"
    },
    {
      "inputs": [],
      "name": "SetInterestRateModelOwnerCheck",
      "type": "error"
    },
    {
      "inputs": [],
      "name": "SetPendingAdminOwnerCheck",
      "type": "error"
    },
    {
      "inputs": [],
      "name": "SetReserveFactorAdminCheck",
      "type": "error"
    },
    {
      "inputs": [],
      "name": "SetReserveFactorBoundsCheck",
      "type": "error"
    },
    {
      "inputs": [],
      "name": "SetReserveFactorFreshCheck",
      "type": "error"
    },
    {
      "inputs": [
        {
          "internalType": "uint256",
          "name": "errorCode",
          "type": "uint256"
        }
      ],
      "name": "TransferComptrollerRejection",
      "type": "error"
    },
    {
      "inputs": [],
      "name": "TransferNotAllowed",
      "type": "error"
    },
    {
      "inputs": [],
      "name": "TransferNotEnough",
      "type": "error"
    },
    {
      "inputs": [],
      "name": "TransferTooMuch",
      "type": "error"
    },
    {
      "anonymous": false,
      "inputs": [
        {
          "indexed": false,
          "internalType": "uint256",
          "name": "cashPrior",
          "type": "uint256"
        },
        {
          "indexed": false,
          "internalType": "uint256",
          "name": "interestAccumulated",
          "type": "uint256"
        },
        {
          "indexed": false,
          "internalType": "uint256",
          "name": "borrowIndex",
          "type": "uint256"
        },
        {
          "indexed": false,
          "internalType": "uint256",
          "name": "totalBorrows",
          "type": "uint256"
        }
      ],
      "name": "AccrueInterest",
      "type": "event"
    },
    {
      "anonymous": false,
      "inputs": [
        {
          "indexed": true,
          "internalType": "address",
          "name": "owner",
          "type": "address"
        },
        {
          "indexed": true,
          "internalType": "address",
          "name": "spender",
          "type": "address"
        },
        {
          "indexed": false,
          "internalType": "uint256",
          "name": "amount",
          "type": "uint256"
        }
      ],
      "name": "Approval",
      "type": "event"
    },
    {
      "anonymous": false,
      "inputs": [
        {
          "indexed": false,
          "internalType": "address",
          "name": "borrower",
          "type": "address"
        },
        {
          "indexed": false,
          "internalType": "uint256",
          "name": "borrowAmount",
          "type": "uint256"
        },
        {
          "indexed": false,
          "internalType": "uint256",
          "name": "accountBorrows",
          "type": "uint256"
        },
        {
          "indexed": false,
          "internalType": "uint256",
          "name": "totalBorrows",
          "type": "uint256"
        }
      ],
      "name": "Borrow",
      "type": "event"
    },
    {
      "anonymous": false,
      "inputs": [
        {
          "indexed": false,
          "internalType": "address",
          "name": "liquidator",
          "type": "address"
        },
        {
          "indexed": false,
          "internalType": "address",
          "name": "borrower",
          "type": "address"
        },
        {
          "indexed": false,
          "internalType": "uint256",
          "name": "repayAmount",
          "type": "uint256"
        },
        {
          "indexed": false,
          "internalType": "address",
          "name": "cTokenCollateral",
          "type": "address"
        },
        {
          "indexed": false,
          "internalType": "uint256",
          "name": "seizeTokens",
          "type": "uint256"
        }
      ],
      "name": "LiquidateBorrow",
      "type": "event"
    },
    {
      "anonymous": false,
      "inputs": [
        {
          "indexed": false,
          "internalType": "address",
          "name": "minter",
          "type": "address"
        },
        {
          "indexed": false,
          "internalType": "uint256",
          "name": "mintAmount",
          "type": "uint256"
        },
        {
          "indexed": false,
          "internalType": "uint256",
          "name": "mintTokens",
          "type": "uint256"
        }
      ],
      "name": "Mint",
      "type": "event"
    },
    {
      "anonymous": false,
      "inputs": [
        {
          "indexed": false,
          "internalType": "address",
          "name": "oldAdmin",
          "type": "address"
        },
        {
          "indexed": false,
          "internalType": "address",
          "name": "newAdmin",
          "type": "address"
        }
      ],
      "name": "NewAdmin",
      "type": "event"
    },
    {
      "anonymous": false,
      "inputs": [
        {
          "indexed": false,
          "internalType": "contract ComptrollerInterface",
          "name": "oldComptroller",
          "type": "address"
        },
        {
          "indexed": false,
          "internalType": "contract ComptrollerInterface",
          "name": "newComptroller",
          "type": "address"
        }
      ],
      "name": "NewComptroller",
      "type": "event"
    },
    {
      "anonymous": false,
      "inputs": [
        {
          "indexed": false,
          "internalType": "contract InterestRateModel",
          "name": "oldInterestRateModel",
          "type": "address"
        },
        {
          "indexed": false,
          "internalType": "contract InterestRateModel",
          "name": "newInterestRateModel",
          "type": "address"
        }
      ],
      "name": "NewMarketInterestRateModel",
      "type": "event"
    },
    {
      "anonymous": false,
      "inputs": [
        {
          "indexed": false,
          "internalType": "address",
          "name": "oldPendingAdmin",
          "type": "address"
        },
        {
          "indexed": false,
          "internalType": "address",
          "name": "newPendingAdmin",
          "type": "address"
        }
      ],
      "name": "NewPendingAdmin",
      "type": "event"
    },
    {
      "anonymous": false,
      "inputs": [
        {
          "indexed": false,
          "internalType": "uint256",
          "name": "oldReserveFactorMantissa",
          "type": "uint256"
        },
        {
          "indexed": false,
          "internalType": "uint256",
          "name": "newReserveFactorMantissa",
          "type": "uint256"
        }
      ],
      "name": "NewReserveFactor",
      "type": "event"
    },
    {
      "anonymous": false,
      "inputs": [
        {
          "indexed": false,
          "internalType": "address",
          "name": "redeemer",
          "type": "address"
        },
        {
          "indexed": false,
          "internalType": "uint256",
          "name": "redeemAmount",
          "type": "uint256"
        },
        {
          "indexed": false,
          "internalType": "uint256",
          "name": "redeemTokens",
          "type": "uint256"
        }
      ],
      "name": "Redeem",
      "type": "event"
    },
    {
      "anonymous": false,
      "inputs": [
        {
          "indexed": false,
          "internalType": "address",
          "name": "payer",
          "type": "address"
        },
        {
          "indexed": false,
          "internalType": "address",
          "name": "borrower",
          "type": "address"
        },
        {
          "indexed": false,
          "internalType": "uint256",
          "name": "repayAmount",
          "type": "uint256"
        },
        {
          "indexed": false,
          "internalType": "uint256",
          "name": "accountBorrows",
          "type": "uint256"
        },
        {
          "indexed": false,
          "internalType": "uint256",
          "name": "totalBorrows",
          "type": "uint256"
        }
      ],
      "name": "RepayBorrow",
      "type": "event"
    },
    {
      "anonymous": false,
      "inputs": [
        {
          "indexed": false,
          "internalType": "address",
          "name": "benefactor",
          "type": "address"
        },
        {
          "indexed": false,
          "internalType": "uint256",
          "name": "addAmount",
          "type": "uint256"
        },
        {
          "indexed": false,
          "internalType": "uint256",
          "name": "newTotalReserves",
          "type": "uint256"
        }
      ],
      "name": "ReservesAdded",
      "type": "event"
    },
    {
      "anonymous": false,
      "inputs": [
        {
          "indexed": false,
          "internalType": "address",
          "name": "admin",
          "type": "address"
        },
        {
          "indexed": false,
          "internalType": "uint256",
          "name": "reduceAmount",
          "type": "uint256"
        },
        {
          "indexed": false,
          "internalType": "uint256",
          "name": "newTotalReserves",
          "type": "uint256"
        }
      ],
      "name": "ReservesReduced",
      "type": "event"
    },
    {
      "anonymous": false,
      "inputs": [
        {
          "indexed": true,
          "internalType": "address",
          "name": "from",
          "type": "address"
        },
        {
          "indexed": true,
          "internalType": "address",
          "name": "to",
          "type": "address"
        },
        {
          "indexed": false,
          "internalType": "uint256",
          "name": "amount",
          "type": "uint256"
        }
      ],
      "name": "Transfer",
      "type": "event"
    },
    {
      "inputs": [],
      "name": "NO_ERROR",
      "outputs": [
        {
          "internalType": "uint256",
          "name": "",
          "type": "uint256"
        }
      ],
      "stateMutability": "view",
      "type": "function"
    },
    {
      "inputs": [],
      "name": "_acceptAdmin",
      "outputs": [
        {
          "internalType": "uint256",
          "name": "",
          "type": "uint256"
        }
      ],
      "stateMutability": "nonpayable",
      "type": "function"
    },
    {
      "inputs": [
        {
          "internalType": "uint256",
          "name": "addAmount",
          "type": "uint256"
        }
      ],
      "name": "_addReserves",
      "outputs": [
        {
          "internalType": "uint256",
          "name": "",
          "type": "uint256"
        }
      ],
      "stateMutability": "nonpayable",
      "type": "function"
    },
    {
      "inputs": [
        {
          "internalType": "address",
          "name": "compLikeDelegatee",
          "type": "address"
        }
      ],
      "name": "_delegateCompLikeTo",
      "outputs": [],
      "stateMutability": "nonpayable",
      "type": "function"
    },
    {
      "inputs": [
        {
          "internalType": "uint256",
          "name": "reduceAmount",
          "type": "uint256"
        }
      ],
      "name": "_reduceReserves",
      "outputs": [
        {
          "internalType": "uint256",
          "name": "",
          "type": "uint256"
        }
      ],
      "stateMutability": "nonpayable",
      "type": "function"
    },
    {
      "inputs": [
        {
          "internalType": "contract ComptrollerInterface",
          "name": "newComptroller",
          "type": "address"
        }
      ],
      "name": "_setComptroller",
      "outputs": [
        {
          "internalType": "uint256",
          "name": "",
          "type": "uint256"
        }
      ],
      "stateMutability": "nonpayable",
      "type": "function"
    },
    {
      "inputs": [
        {
          "internalType": "contract InterestRateModel",
          "name": "newInterestRateModel",
          "type": "address"
        }
      ],
      "name": "_setInterestRateModel",
      "outputs": [
        {
          "internalType": "uint256",
          "name": "",
          "type": "uint256"
        }
      ],
      "stateMutability": "nonpayable",
      "type": "function"
    },
    {
      "inputs": [
        {
          "internalType": "address payable",
          "name": "newPendingAdmin",
          "type": "address"
        }
      ],
      "name": "_setPendingAdmin",
      "outputs": [
        {
          "internalType": "uint256",
          "name": "",
          "type": "uint256"
        }
      ],
      "stateMutability": "nonpayable",
      "type": "function"
    },
    {
      "inputs": [
        {
          "internalType": "uint256",
          "name": "newReserveFactorMantissa",
          "type": "uint256"
        }
      ],
      "name": "_setReserveFactor",
      "outputs": [
        {
          "internalType": "uint256",
          "name": "",
          "type": "uint256"
        }
      ],
      "stateMutability": "nonpayable",
      "type": "function"
    },
    {
      "inputs": [],
      "name": "accrualBlockNumber",
      "outputs": [
        {
          "internalType": "uint256",
          "name": "",
          "type": "uint256"
        }
      ],
      "stateMutability": "view",
      "type": "function"
    },
    {
      "inputs": [],
      "name": "accrueInterest",
      "outputs": [
        {
          "internalType": "uint256",
          "name": "",
          "type": "uint256"
        }
      ],
      "stateMutability": "nonpayable",
      "type": "function"
    },
    {
      "inputs": [],
      "name": "admin",
      "outputs": [
        {
          "internalType": "address payable",
          "name": "",
          "type": "address"
        }
      ],
      "stateMutability": "view",
      "type": "function"
    },
    {
      "inputs": [
        {
          "internalType": "address",
          "name": "owner",
          "type": "address"
        },
        {
          "internalType": "address",
          "name": "spender",
          "type": "address"
        }
      ],
      "name": "allowance",
      "outputs": [
        {
          "internalType": "uint256",
          "name": "",
          "type": "uint256"
        }
      ],
      "stateMutability": "view",
      "type": "function"
    },
    {
      "inputs": [
        {
          "internalType": "address",
          "name": "spender",
          "type": "address"
        },
        {
          "internalType": "uint256",
          "name": "amount",
          "type": "uint256"
        }
      ],
      "name": "approve",
      "outputs": [
        {
          "internalType": "bool",
          "name": "",
          "type": "bool"
        }
      ],
      "stateMutability": "nonpayable",
      "type": "function"
    },
    {
      "inputs": [
        {
          "internalType": "address",
          "name": "owner",
          "type": "address"
        }
      ],
      "name": "balanceOf",
      "outputs": [
        {
          "internalType": "uint256",
          "name": "",
          "type": "uint256"
        }
      ],
      "stateMutability": "view",
      "type": "function"
    },
    {
      "inputs": [
        {
          "internalType": "address",
          "name": "owner",
          "type": "address"
        }
      ],
      "name": "balanceOfUnderlying",
      "outputs": [
        {
          "internalType": "uint256",
          "name": "",
          "type": "uint256"
        }
      ],
      "stateMutability": "nonpayable",
      "type": "function"
    },
    {
      "inputs": [
        {
          "internalType": "uint256",
          "name": "borrowAmount",
          "type": "uint256"
        }
      ],
      "name": "borrow",
      "outputs": [
        {
          "internalType": "uint256",
          "name": "",
          "type": "uint256"
        }
      ],
      "stateMutability": "nonpayable",
      "type": "function"
    },
    {
      "inputs": [
        {
          "internalType": "address",
          "name": "account",
          "type": "address"
        }
      ],
      "name": "borrowBalanceCurrent",
      "outputs": [
        {
          "internalType": "uint256",
          "name": "",
          "type": "uint256"
        }
      ],
      "stateMutability": "nonpayable",
      "type": "function"
    },
    {
      "inputs": [
        {
          "internalType": "address",
          "name": "account",
          "type": "address"
        }
      ],
      "name": "borrowBalanceStored",
      "outputs": [
        {
          "internalType": "uint256",
          "name": "",
          "type": "uint256"
        }
      ],
      "stateMutability": "view",
      "type": "function"
    },
    {
      "inputs": [],
      "name": "borrowIndex",
      "outputs": [
        {
          "internalType": "uint256",
          "name": "",
          "type": "uint256"
        }
      ],
      "stateMutability": "view",
      "type": "function"
    },
    {
      "inputs": [],
      "name": "borrowRatePerBlock",
      "outputs": [
        {
          "internalType": "uint256",
          "name": "",
          "type": "uint256"
        }
      ],
      "stateMutability": "view",
      "type": "function"
    },
    {
      "inputs": [],
      "name": "comptroller",
      "outputs": [
        {
          "internalType": "contract ComptrollerInterface",
          "name": "",
          "type": "address"
        }
      ],
      "stateMutability": "view",
      "type": "function"
    },
    {
      "inputs": [],
      "name": "decimals",
      "outputs": [
        {
          "internalType": "uint8",
          "name": "",
          "type": "uint8"
        }
      ],
      "stateMutability": "view",
      "type": "function"
    },
    {
      "inputs": [],
      "name": "exchangeRateCurrent",
      "outputs": [
        {
          "internalType": "uint256",
          "name": "",
          "type": "uint256"
        }
      ],
      "stateMutability": "nonpayable",
      "type": "function"
    },
    {
      "inputs": [],
      "name": "exchangeRateStored",
      "outputs": [
        {
          "internalType": "uint256",
          "name": "",
          "type": "uint256"
        }
      ],
      "stateMutability": "view",
      "type": "function"
    },
    {
      "inputs": [
        {
          "internalType": "address",
          "name": "account",
          "type": "address"
        }
      ],
      "name": "getAccountSnapshot",
      "outputs": [
        {
          "internalType": "uint256",
          "name": "",
          "type": "uint256"
        },
        {
          "internalType": "uint256",
          "name": "",
          "type": "uint256"
        },
        {
          "internalType": "uint256",
          "name": "",
          "type": "uint256"
        },
        {
          "internalType": "uint256",
          "name": "",
          "type": "uint256"
        }
      ],
      "stateMutability": "view",
      "type": "function"
    },
    {
      "inputs": [],
      "name": "getCash",
      "outputs": [
        {
          "internalType": "uint256",
          "name": "",
          "type": "uint256"
        }
      ],
      "stateMutability": "view",
      "type": "function"
    },
    {
      "inputs": [
        {
          "internalType": "address",
          "name": "underlying_",
          "type": "address"
        },
        {
          "internalType": "contract ComptrollerInterface",
          "name": "comptroller_",
          "type": "address"
        },
        {
          "internalType": "contract InterestRateModel",
          "name": "interestRateModel_",
          "type": "address"
        },
        {
          "internalType": "uint256",
          "name": "initialExchangeRateMantissa_",
          "type": "uint256"
        },
        {
          "internalType": "string",
          "name": "name_",
          "type": "string"
        },
        {
          "internalType": "string",
          "name": "symbol_",
          "type": "string"
        },
        {
          "internalType": "uint8",
          "name": "decimals_",
          "type": "uint8"
        }
      ],
      "name": "initialize",
      "outputs": [],
      "stateMutability": "nonpayable",
      "type": "function"
    },
    {
      "inputs": [
        {
          "internalType": "contract ComptrollerInterface",
          "name": "comptroller_",
          "type": "address"
        },
        {
          "internalType": "contract InterestRateModel",
          "name": "interestRateModel_",
          "type": "address"
        },
        {
          "internalType": "uint256",
          "name": "initialExchangeRateMantissa_",
          "type": "uint256"
        },
        {
          "internalType": "string",
          "name": "name_",
          "type": "string"
        },
        {
          "internalType": "string",
          "name": "symbol_",
          "type": "string"
        },
        {
          "internalType": "uint8",
          "name": "decimals_",
          "type": "uint8"
        }
      ],
      "name": "initialize",
      "outputs": [],
      "stateMutability": "nonpayable",
      "type": "function"
    },
    {
      "inputs": [],
      "name": "interestRateModel",
      "outputs": [
        {
          "internalType": "contract InterestRateModel",
          "name": "",
          "type": "address"
        }
      ],
      "stateMutability": "view",
      "type": "function"
    },
    {
      "inputs": [],
      "name": "isCToken",
      "outputs": [
        {
          "internalType": "bool",
          "name": "",
          "type": "bool"
        }
      ],
      "stateMutability": "view",
      "type": "function"
    },
    {
      "inputs": [
        {
          "internalType": "address",
          "name": "borrower",
          "type": "address"
        },
        {
          "internalType": "uint256",
          "name": "repayAmount",
          "type": "uint256"
        },
        {
          "internalType": "contract CTokenInterface",
          "name": "cTokenCollateral",
          "type": "address"
        }
      ],
      "name": "liquidateBorrow",
      "outputs": [
        {
          "internalType": "uint256",
          "name": "",
          "type": "uint256"
        }
      ],
      "stateMutability": "nonpayable",
      "type": "function"
    },
    {
      "inputs": [
        {
          "internalType": "uint256",
          "name": "mintAmount",
          "type": "uint256"
        }
      ],
      "name": "mint",
      "outputs": [
        {
          "internalType": "uint256",
          "name": "",
          "type": "uint256"
        }
      ],
      "stateMutability": "nonpayable",
      "type": "function"
    },
    {
      "inputs": [],
      "name": "name",
      "outputs": [
        {
          "internalType": "string",
          "name": "",
          "type": "string"
        }
      ],
      "stateMutability": "view",
      "type": "function"
    },
    {
      "inputs": [],
      "name": "pendingAdmin",
      "outputs": [
        {
          "internalType": "address payable",
          "name": "",
          "type": "address"
        }
      ],
      "stateMutability": "view",
      "type": "function"
    },
    {
      "inputs": [],
      "name": "protocolSeizeShareMantissa",
      "outputs": [
        {
          "internalType": "uint256",
          "name": "",
          "type": "uint256"
        }
      ],
      "stateMutability": "view",
      "type": "function"
    },
    {
      "inputs": [
        {
          "internalType": "uint256",
          "name": "redeemTokens",
          "type": "uint256"
        }
      ],
      "name": "redeem",
      "outputs": [
        {
          "internalType": "uint256",
          "name": "",
          "type": "uint256"
        }
      ],
      "stateMutability": "nonpayable",
      "type": "function"
    },
    {
      "inputs": [
        {
          "internalType": "uint256",
          "name": "redeemAmount",
          "type": "uint256"
        }
      ],
      "name": "redeemUnderlying",
      "outputs": [
        {
          "internalType": "uint256",
          "name": "",
          "type": "uint256"
        }
      ],
      "stateMutability": "nonpayable",
      "type": "function"
    },
    {
      "inputs": [
        {
          "internalType": "uint256",
          "name": "repayAmount",
          "type": "uint256"
        }
      ],
      "name": "repayBorrow",
      "outputs": [
        {
          "internalType": "uint256",
          "name": "",
          "type": "uint256"
        }
      ],
      "stateMutability": "nonpayable",
      "type": "function"
    },
    {
      "inputs": [
        {
          "internalType": "address",
          "name": "borrower",
          "type": "address"
        },
        {
          "internalType": "uint256",
          "name": "repayAmount",
          "type": "uint256"
        }
      ],
      "name": "repayBorrowBehalf",
      "outputs": [
        {
          "internalType": "uint256",
          "name": "",
          "type": "uint256"
        }
      ],
      "stateMutability": "nonpayable",
      "type": "function"
    },
    {
      "inputs": [],
      "name": "reserveFactorMantissa",
      "outputs": [
        {
          "internalType": "uint256",
          "name": "",
          "type": "uint256"
        }
      ],
      "stateMutability": "view",
      "type": "function"
    },
    {
      "inputs": [
        {
          "internalType": "address",
          "name": "liquidator",
          "type": "address"
        },
        {
          "internalType": "address",
          "name": "borrower",
          "type": "address"
        },
        {
          "internalType": "uint256",
          "name": "seizeTokens",
          "type": "uint256"
        }
      ],
      "name": "seize",
      "outputs": [
        {
          "internalType": "uint256",
          "name": "",
          "type": "uint256"
        }
      ],
      "stateMutability": "nonpayable",
      "type": "function"
    },
    {
      "inputs": [],
      "name": "supplyRatePerBlock",
      "outputs": [
        {
          "internalType": "uint256",
          "name": "",
          "type": "uint256"
        }
      ],
      "stateMutability": "view",
      "type": "function"
    },
    {
      "inputs": [
        {
          "internalType": "contract EIP20NonStandardInterface",
          "name": "token",
          "type": "address"
        }
      ],
      "name": "sweepToken",
      "outputs": [],
      "stateMutability": "nonpayable",
      "type": "function"
    },
    {
      "inputs": [],
      "name": "symbol",
      "outputs": [
        {
          "internalType": "string",
          "name": "",
          "type": "string"
        }
      ],
      "stateMutability": "view",
      "type": "function"
    },
    {
      "inputs": [],
      "name": "totalBorrows",
      "outputs": [
        {
          "internalType": "uint256",
          "name": "",
          "type": "uint256"
        }
      ],
      "stateMutability": "view",
      "type": "function"
    },
    {
      "inputs": [],
      "name": "totalBorrowsCurrent",
      "outputs": [
        {
          "internalType": "uint256",
          "name": "",
          "type": "uint256"
        }
      ],
      "stateMutability": "nonpayable",
      "type": "function"
    },
    {
      "inputs": [],
      "name": "totalReserves",
      "outputs": [
        {
          "internalType": "uint256",
          "name": "",
          "type": "uint256"
        }
      ],
      "stateMutability": "view",
      "type": "function"
    },
    {
      "inputs": [],
      "name": "totalSupply",
      "outputs": [
        {
          "internalType": "uint256",
          "name": "",
          "type": "uint256"
        }
      ],
      "stateMutability": "view",
      "type": "function"
    },
    {
      "inputs": [
        {
          "internalType": "address",
          "name": "dst",
          "type": "address"
        },
        {
          "internalType": "uint256",
          "name": "amount",
          "type": "uint256"
        }
      ],
      "name": "transfer",
      "outputs": [
        {
          "internalType": "bool",
          "name": "",
          "type": "bool"
        }
      ],
      "stateMutability": "nonpayable",
      "type": "function"
    },
    {
      "inputs": [
        {
          "internalType": "address",
          "name": "src",
          "type": "address"
        },
        {
          "internalType": "address",
          "name": "dst",
          "type": "address"
        },
        {
          "internalType": "uint256",
          "name": "amount",
          "type": "uint256"
        }
      ],
      "name": "transferFrom",
      "outputs": [
        {
          "internalType": "bool",
          "name": "",
          "type": "bool"
        }
      ],
      "stateMutability": "nonpayable",
      "type": "function"
    },
    {
      "inputs": [],
      "name": "underlying",
      "outputs": [
        {
          "internalType": "address",
          "name": "",
          "type": "address"
        }
      ],
      "stateMutability": "view",
      "type": "function"
    }
  ],
  "bytecode": "0x608060405234801561001057600080fd5b50613ea0806100206000396000f3fe608060405234801561001057600080fd5b506004361061030c5760003560e01c80637f1e06be1161019d578063bd6d894d116100e9578063f2b3abbd116100a2578063f851a4401161007c578063f851a44014610691578063f8f9da28146106a9578063fca7820b146106b1578063fe9c44ae146106c457600080fd5b8063f2b3abbd14610658578063f3fdb15a1461066b578063f5e3c4621461067e57600080fd5b8063bd6d894d146105c6578063c37f68e2146105ce578063c5ebeaec146105f1578063db006a7514610604578063dd62ed3e14610617578063e9c714f21461065057600080fd5b8063a0712d6811610156578063aa5af0fd11610130578063aa5af0fd1461058f578063ae9d70b014610598578063b2a02ff1146105a0578063b71d1a0c146105b357600080fd5b8063a0712d6814610561578063a6afed9514610574578063a9059cbb1461057c57600080fd5b80637f1e06be14610504578063852a12e3146105175780638f840ddd1461052a57806395d89b411461053357806395dd91931461053b57806399d8c1b41461054e57600080fd5b80633af9e6691161025c578063601a0bf1116102155780636c540baf116101ef5780636c540baf146104b75780636f307dc3146104c057806370a08231146104d357806373acee98146104fc57600080fd5b8063601a0bf11461048e5780636752e702146104a157806369ab3250146104af57600080fd5b80633af9e669146104245780633b1d21a2146104375780633e9410101461043f5780634576b5db1461045257806347bd3718146104655780635fe3b5671461046e57600080fd5b8063182df0f5116102c957806323b872dd116102a357806323b872dd146103c45780632608f818146103d757806326782247146103ea578063313ce5671461040a57600080fd5b8063182df0f5146103945780631a31d4651461039c5780631be19560146103b157600080fd5b806306fdde0314610311578063095ea7b31461032f5780630e7527021461034f578063173b99041461036f57806317bfdfbc1461037857806318160ddd1461038b575b600080fd5b6103196106cc565b6040516103269190612f40565b60405180910390f35b61034261033d366004612f95565b61075a565b6040516103269190612fdc565b61036261035d366004612fea565b6107c8565b6040516103269190613011565b61036260085481565b61036261038636600461301f565b6107db565b610362600d5481565b610362610837565b6103af6103aa36600461316e565b610846565b005b6103af6103bf366004613243565b6108db565b6103426103d2366004613264565b610a19565b6103626103e5366004612f95565b610a69565b6004546103fd906001600160a01b031681565b60405161032691906132bd565b6003546104179060ff1681565b60405161032691906132d4565b61036261043236600461301f565b610a7e565b610362610ac4565b61036261044d366004612fea565b610ace565b610362610460366004613243565b610ad9565b610362600b5481565b600554610481906001600160a01b031681565b6040516103269190613324565b61036261049c366004612fea565b610bf4565b610362666379da05b6000081565b610362600081565b61036260095481565b6011546103fd906001600160a01b031681565b6103626104e136600461301f565b6001600160a01b03166000908152600e602052604090205490565b610362610c33565b6103af61051236600461301f565b610c7d565b610362610525366004612fea565b610d11565b610362600c5481565b610319610d1c565b61036261054936600461301f565b610d29565b6103af61055c366004613332565b610d34565b61036261056f366004612fea565b610e55565b610362610e60565b61034261058a366004612f95565b61100d565b610362600a5481565b61036261105c565b6103626105ae366004613264565b6110e1565b6103626105c136600461301f565b611130565b6103626111b6565b6105e16105dc36600461301f565b611206565b60405161032694939291906133f2565b6103626105ff366004612fea565b611247565b610362610612366004612fea565b611252565b610362610625366004613427565b6001600160a01b039182166000908152600f6020908152604080832093909416825291909152205490565b61036261125d565b610362610666366004613243565b611362565b600654610481906001600160a01b031681565b61036261068c36600461345a565b611376565b6003546103fd9061010090046001600160a01b031681565b61036261138d565b6103626106bf366004612fea565b6113cd565b610342600181565b600180546106d9906134b6565b80601f0160208091040260200160405190810160405280929190818152602001828054610705906134b6565b80156107525780601f1061072757610100808354040283529160200191610752565b820191906000526020600020905b81548152906001019060200180831161073557829003601f168201915b505050505081565b336000818152600f602090815260408083206001600160a01b03871680855292528083208590555191929182907f8c5be1e5ebec7d5bd14f71427d1e84f3dd0314c0f7b2291e5b200ac8c7c3b925906107b4908790613011565b60405180910390a360019150505b92915050565b60006107d38261140c565b506000919050565b6000805460ff166108075760405162461bcd60e51b81526004016107fe90613506565b60405180910390fd5b6000805460ff19169055610819610e60565b5061082382610d29565b90506000805460ff19166001179055919050565b600061084161145d565b905090565b610854868686868686610d34565b601180546001600160a01b0319166001600160a01b038916908117909155604080516318160ddd60e01b815290516318160ddd916004808201926020929091908290030181865afa1580156108ad573d6000803e3d6000fd5b505050506040513d601f19601f820116820180604052508101906108d19190613521565b5050505050505050565b60035461010090046001600160a01b0316331461090a5760405162461bcd60e51b81526004016107fe90613591565b6011546001600160a01b03908116908216036109385760405162461bcd60e51b81526004016107fe906135f0565b6040516370a0823160e01b81526000906001600160a01b038316906370a08231906109679030906004016132bd565b602060405180830381865afa158015610984573d6000803e3d6000fd5b505050506040513d601f19601f820116820180604052508101906109a89190613521565b60035460405163a9059cbb60e01b81529192506001600160a01b038085169263a9059cbb926109e39261010090910416908590600401613600565b600060405180830381600087803b1580156109fd57600080fd5b505af1158015610a11573d6000803e3d6000fd5b505050505050565b6000805460ff16610a3c5760405162461bcd60e51b81526004016107fe90613506565b6000805460ff19168155610a52338686866114c5565b1490506000805460ff191660011790559392505050565b6000610a7583836116e5565b50600092915050565b6000806040518060200160405280610a946111b6565b90526001600160a01b0384166000908152600e6020526040902054909150610abd908290611737565b9392505050565b600061084161174f565b60006107c2826117c9565b60035460009061010090046001600160a01b03163314610b0c5760405163d219dc1f60e01b815260040160405180910390fd5b60055460408051623f1ee960e11b815290516001600160a01b0392831692851691627e3dd29160048083019260209291908290030181865afa158015610b56573d6000803e3d6000fd5b505050506040513d601f19601f82011682018060405250810190610b7a919061362e565b610b965760405162461bcd60e51b81526004016107fe90613683565b600580546001600160a01b0319166001600160a01b0385161790556040517f7ac369dbd14fa5ea3f473ed67cc9d598964a77501540ba6751eb0b3decf5870d90610be39083908690613693565b60405180910390a150600092915050565b6000805460ff16610c175760405162461bcd60e51b81526004016107fe90613506565b6000805460ff19169055610c29610e60565b5061082382611820565b6000805460ff16610c565760405162461bcd60e51b81526004016107fe90613506565b6000805460ff19169055610c68610e60565b5050600b546000805460ff1916600117905590565b60035461010090046001600160a01b03163314610cac5760405162461bcd60e51b81526004016107fe906136f8565b6011546040516317066a5760e21b81526001600160a01b0390911690635c19a95c90610cdc9084906004016132bd565b600060405180830381600087803b158015610cf657600080fd5b505af1158015610d0a573d6000803e3d6000fd5b5050505050565b60006107d38261193b565b600280546106d9906134b6565b60006107c28261198c565b60035461010090046001600160a01b03163314610d635760405162461bcd60e51b81526004016107fe90613749565b600954158015610d735750600a54155b610d8f5760405162461bcd60e51b81526004016107fe90613799565b600784905583610db15760405162461bcd60e51b81526004016107fe906137f6565b6000610dbc87610ad9565b90508015610ddc5760405162461bcd60e51b81526004016107fe9061383a565b43600955670de0b6b3a7640000600a55610df5866119d8565b90508015610e155760405162461bcd60e51b81526004016107fe90613889565b6001610e218582613933565b506002610e2e8482613933565b50506003805460ff90921660ff199283161790556000805490911660011790555050505050565b60006107d382611b12565b6009546000904390818103610e785760009250505090565b6000610e8261174f565b600b54600c54600a546006546040516315f2405360e01b81529495509293919290916000916001600160a01b0316906315f2405390610ec9908890889088906004016139f6565b602060405180830381865afa158015610ee6573d6000803e3d6000fd5b505050506040513d601f19601f82011682018060405250810190610f0a9190613521565b905065048c27395000811115610f325760405162461bcd60e51b81526004016107fe90613a52565b6000610f3e8789613a78565b90506000610f5a60405180602001604052808581525083611b51565b90506000610f688288611737565b90506000610f768883613a8b565b90506000610f956040518060200160405280600854815250848a611b82565b90506000610fa485898a611b82565b60098e9055600a819055600b849055600c8390556040519091507f4dec04e750ca11537cabcd8a9eab06494de08da3735bc8871cd41250e190bc0490610ff1908d908790859088906133f2565b60405180910390a160009d505050505050505050505050505090565b6000805460ff166110305760405162461bcd60e51b81526004016107fe90613506565b6000805460ff19168155611046338086866114c5565b1490506000805460ff1916600117905592915050565b6006546000906001600160a01b031663b816881661107861174f565b600b54600c546008546040518563ffffffff1660e01b81526004016110a094939291906133f2565b602060405180830381865afa1580156110bd573d6000803e3d6000fd5b505050506040513d601f19601f820116820180604052508101906108419190613521565b6000805460ff166111045760405162461bcd60e51b81526004016107fe90613506565b6000805460ff1916905561111a33858585611ba3565b50600080805460ff191660011790559392505050565b60035460009061010090046001600160a01b0316331461116357604051635cb56c2b60e01b815260040160405180910390fd5b600480546001600160a01b038481166001600160a01b03198316179092556040519116907fca4f2f25d0898edd99413412fb94012f9e54ec8142f9b093e7720646a95b16a990610be39083908690613a9e565b6000805460ff166111d95760405162461bcd60e51b81526004016107fe90613506565b6000805460ff191690556111eb610e60565b506111f4610837565b90506000805460ff1916600117905590565b6001600160a01b0381166000908152600e602052604081205481908190819081906112308761198c565b61123861145d565b93509350935093509193509193565b60006107d382611e11565b60006107d382611e50565b6004546000906001600160a01b031633141580611278575033155b1561129657604051631ba24f2960e21b815260040160405180910390fd5b60038054600480546001600160a01b03818116610100818102610100600160a81b0319871617968790556001600160a01b03199093169093556040519382900481169492937ff9ffabca9c8276e99321725bcb43fb076a6c66a54b7f21c4e8146d8519b417dc9361130c93879391041690613a9e565b60405180910390a16004546040517fca4f2f25d0898edd99413412fb94012f9e54ec8142f9b093e7720646a95b16a9916113519184916001600160a01b031690613a9e565b60405180910390a160009250505090565b600061136c610e60565b506107c2826119d8565b6000611383848484611e91565b5060009392505050565b6006546000906001600160a01b03166315f240536113a961174f565b600b54600c546040518463ffffffff1660e01b81526004016110a0939291906139f6565b6000805460ff166113f05760405162461bcd60e51b81526004016107fe90613506565b6000805460ff19169055611402610e60565b5061082382611f6e565b60005460ff1661142e5760405162461bcd60e51b81526004016107fe90613506565b6000805460ff19169055611440610e60565b5061144c333383612026565b50506000805460ff19166001179055565b600d5460009080820361147257505060075490565b600061147c61174f565b90506000600c54600b54836114919190613a8b565b61149b9190613a78565b90506000836114b2670de0b6b3a764000084613aac565b6114bc9190613ae1565b95945050505050565b6005546040516317b9b84b60e31b815260009182916001600160a01b039091169063bdcdc25890611500903090899089908990600401613af5565b6020604051808303816000875af115801561151f573d6000803e3d6000fd5b505050506040513d601f19601f820116820180604052508101906115439190613521565b90508015611566578060405163089d427760e11b81526004016107fe9190613011565b836001600160a01b0316856001600160a01b03160361159857604051638cd22d1960e01b815260040160405180910390fd5b6000856001600160a01b0316876001600160a01b0316036115bc57506000196115e4565b506001600160a01b038086166000908152600f60209081526040808320938a16835292905220545b60006115f08583613a78565b6001600160a01b0388166000908152600e602052604081205491925090611618908790613a78565b6001600160a01b0388166000908152600e602052604081205491925090611640908890613a8b565b6001600160a01b03808b166000908152600e6020526040808220869055918b168152208190559050600019841461169a576001600160a01b03808a166000908152600f60209081526040808320938e168352929052208390555b876001600160a01b0316896001600160a01b0316600080516020613e4b833981519152896040516116cb9190613011565b60405180910390a36000955050505050505b949350505050565b60005460ff166117075760405162461bcd60e51b81526004016107fe90613506565b6000805460ff19169055611719610e60565b50611725338383612026565b50506000805460ff1916600117905550565b6000806117448484611b51565b90506116dd816121b1565b6011546040516370a0823160e01b81526000916001600160a01b03169081906370a08231906117829030906004016132bd565b602060405180830381865afa15801561179f573d6000803e3d6000fd5b505050506040513d601f19601f820116820180604052508101906117c39190613521565b91505090565b6000805460ff166117ec5760405162461bcd60e51b81526004016107fe90613506565b6000805460ff191690556117fe610e60565b50611808826121c9565b5050600090506000805460ff19166001179055919050565b600354600090819061010090046001600160a01b0316331461185557604051630f7e5e6d60e41b815260040160405180910390fd5b436009541461187757604051630dff50cb60e41b815260040160405180910390fd5b8261188061174f565b101561189f57604051633345e99960e01b815260040160405180910390fd5b600c548311156118c2576040516378d2980560e11b815260040160405180910390fd5b82600c546118d09190613a78565b600c8190556003549091506118f39061010090046001600160a01b03168461225c565b7f3bad0c59cf2f06e7314077049f48a93578cd16f5ef92329f1dab1420a99c177e600360019054906101000a90046001600160a01b03168483604051610be393929190613b1d565b60005460ff1661195d5760405162461bcd60e51b81526004016107fe90613506565b6000805460ff1916905561196f610e60565b5061197c33600083612314565b506000805460ff19166001179055565b6001600160a01b0381166000908152601060205260408120805482036119b55750600092915050565b600a5481546000916119c691613aac565b90508160010154816116dd9190613ae1565b600354600090819061010090046001600160a01b03163314611a0d5760405163407fded560e01b815260040160405180910390fd5b4360095414611a2f57604051630be2a5cb60e11b815260040160405180910390fd5b600660009054906101000a90046001600160a01b03169050826001600160a01b0316632191f92a6040518163ffffffff1660e01b8152600401602060405180830381865afa158015611a85573d6000803e3d6000fd5b505050506040513d601f19601f82011682018060405250810190611aa9919061362e565b611ac55760405162461bcd60e51b81526004016107fe90613683565b600680546001600160a01b0319166001600160a01b0385161790556040517fedffc32e068c7c95dfd4bdfd5c4d939a084d6b11c4199eac8436ed234d72f92690610be39083908690613693565b60005460ff16611b345760405162461bcd60e51b81526004016107fe90613506565b6000805460ff19169055611b46610e60565b5061197c33826125a3565b6040805160208101909152600081526040518060200160405280611b79856000015185612763565b90529392505050565b600080611b8f8585611b51565b90506114bc611b9d826121b1565b8461276f565b60055460405163d02f735160e01b81526000916001600160a01b03169063d02f735190611bdc9030908990899089908990600401613b2b565b6020604051808303816000875af1158015611bfb573d6000803e3d6000fd5b505050506040513d601f19601f82011682018060405250810190611c1f9190613521565b90508015611c4257806040516363e00e3360e11b81526004016107fe9190613011565b836001600160a01b0316836001600160a01b031603611c7457604051633a94626760e11b815260040160405180910390fd5b6000611c95836040518060200160405280666379da05b6000081525061277b565b90506000611ca38285613a78565b905060006040518060200160405280611cba61145d565b905290506000611cca8285611737565b9050600081600c54611cdc9190613a8b565b600c819055600d54909150611cf2908690613a78565b600d556001600160a01b0388166000908152600e6020526040902054611d19908890613a78565b6001600160a01b03808a166000908152600e602052604080822093909355908b1681522054611d49908590613a8b565b6001600160a01b03808b166000818152600e602052604090819020939093559151908a1690600080516020613e4b83398151915290611d89908890613011565b60405180910390a3306001600160a01b0316886001600160a01b0316600080516020613e4b83398151915287604051611dc29190613011565b60405180910390a37fa91e67c5ea634cd43a12c5a482724b03de01e85ca68702a53d0c2f45cb7c1dc5308383604051611dfd93929190613b77565b60405180910390a150505050505050505050565b60005460ff16611e335760405162461bcd60e51b81526004016107fe90613506565b6000805460ff19169055611e45610e60565b5061197c338261279e565b60005460ff16611e725760405162461bcd60e51b81526004016107fe90613506565b6000805460ff19169055611e84610e60565b5061197c33826000612314565b60005460ff16611eb35760405162461bcd60e51b81526004016107fe90613506565b6000805460ff19169055611ec5610e60565b506000816001600160a01b031663a6afed956040518163ffffffff1660e01b81526004016020604051808303816000875af1158015611f08573d6000803e3d6000fd5b505050506040513d601f19601f82011682018060405250810190611f2c9190613521565b90508015611f4f5780604051633eea49b760e11b81526004016107fe9190613011565b611f5b33858585612928565b50506000805460ff191660011790555050565b60035460009061010090046001600160a01b03163314611fa157604051631205b57b60e11b815260040160405180910390fd5b4360095414611fc357604051637dfca6b760e11b815260040160405180910390fd5b670de0b6b3a7640000821115611fec5760405163717220f360e11b815260040160405180910390fd5b60088054908390556040517faaa68312e2ea9d50e16af5068410ab56e1a1fd06037b1a35664812c30f82146090610be39083908690613b85565b600554604051631200453160e11b815260009182916001600160a01b03909116906324008a6290612061903090899089908990600401613af5565b6020604051808303816000875af1158015612080573d6000803e3d6000fd5b505050506040513d601f19601f820116820180604052508101906120a49190613521565b905080156120c75780604051638c81362d60e01b81526004016107fe9190613011565b43600954146120e95760405163c9021e2f60e01b815260040160405180910390fd5b60006120f48561198c565b9050600060001985146121075784612109565b815b905060006121178883612d14565b905060006121258285613a78565b9050600082600b546121379190613a78565b6001600160a01b038a1660009081526010602052604090819020848155600a54600190910155600b829055519091507f1a2a22cb034d26d1854bdc6666a5b91fe25efbbb5dcad3b0355478d6f5c362a19061219b908c908c90879087908790613b93565b60405180910390a1509098975050505050505050565b80516000906107c290670de0b6b3a764000090613ae1565b600080808043600954146121f257806040516338acf79960e01b81526004016107fe9190613011565b6121fc3386612d14565b905080600c5461220c9190613a8b565b915081600c819055507fa91e67c5ea634cd43a12c5a482724b03de01e85ca68702a53d0c2f45cb7c1dc533828460405161224893929190613b77565b60405180910390a160009590945092505050565b60115460405163a9059cbb60e01b81526001600160a01b0390911690819063a9059cbb906122909086908690600401613600565b600060405180830381600087803b1580156122aa57600080fd5b505af11580156122be573d6000803e3d6000fd5b5050505060003d600081146122da57602081146122e457600080fd5b60001991506122f0565b60206000803e60005191505b508061230e5760405162461bcd60e51b81526004016107fe90613bfc565b50505050565b81158061231f575080155b61233b5760405162461bcd60e51b81526004016107fe90613c5d565b6000604051806020016040528061235061145d565b9052905060008084156123715784915061236a8386611737565b9050612381565b61237b8484612ec5565b91508390505b60055460405163eabe7d9160e01b81526000916001600160a01b03169063eabe7d91906123b69030908b908890600401613c6d565b6020604051808303816000875af11580156123d5573d6000803e3d6000fd5b505050506040513d601f19601f820116820180604052508101906123f99190613521565b9050801561241c578060405163480f424760e01b81526004016107fe9190613011565b436009541461243e576040516397b5cfcd60e01b815260040160405180910390fd5b8161244761174f565b1015612466576040516391240a1b60e01b815260040160405180910390fd5b82600d546124749190613a78565b600d556001600160a01b0387166000908152600e602052604090205461249b908490613a78565b6001600160a01b0388166000908152600e60205260409020556124be878361225c565b306001600160a01b0316876001600160a01b0316600080516020613e4b833981519152856040516124ef9190613011565b60405180910390a37fe5b754fb1abb7f01b499791d0b820ae3b6af3424ac1c59768edb53f4ec31a92987838560405161252a93929190613b1d565b60405180910390a16005546040516351dff98960e01b81526001600160a01b03909116906351dff989906125689030908b9087908990600401613c88565b600060405180830381600087803b15801561258257600080fd5b505af1158015612596573d6000803e3d6000fd5b5050505050505050505050565b600554604051634ef4c3e160e01b81526000916001600160a01b031690634ef4c3e1906125d890309087908790600401613ca3565b6020604051808303816000875af11580156125f7573d6000803e3d6000fd5b505050506040513d601f19601f8201168201806040525081019061261b9190613521565b9050801561263e57806040516349abd4fd60e01b81526004016107fe9190613011565b4360095414612660576040516338d8859760e01b815260040160405180910390fd5b6000604051806020016040528061267561145d565b9052905060006126858585612d14565b905060006126938284612ec5565b905080600d546126a39190613a8b565b600d556001600160a01b0386166000908152600e60205260409020546126ca908290613a8b565b6001600160a01b0387166000908152600e60205260409081902091909155517f4c209b5fc8ad50758f13e2e1088ba56a560dff690a1c6fef26394f4c03821c4f9061271a90889085908590613b77565b60405180910390a1856001600160a01b0316306001600160a01b0316600080516020613e4b833981519152836040516127539190613011565b60405180910390a3505050505050565b6000610abd8284613aac565b6000610abd8284613a8b565b6000670de0b6b3a7640000612794848460000151612763565b610abd9190613ae1565b60055460405163368f515360e21b81526000916001600160a01b03169063da3d454c906127d390309087908790600401613c6d565b6020604051808303816000875af11580156127f2573d6000803e3d6000fd5b505050506040513d601f19601f820116820180604052508101906128169190613521565b90508015612839578060405163918db40f60e01b81526004016107fe9190613011565b436009541461285b57604051630e8d8c6160e21b815260040160405180910390fd5b8161286461174f565b1015612883576040516348c2588160e01b815260040160405180910390fd5b600061288e8461198c565b9050600061289c8483613a8b565b9050600084600b546128ae9190613a8b565b6001600160a01b0387166000908152601060205260409020838155600a54600190910155600b81905590506128e3868661225c565b7f13ed6866d4e1ee6da46f845c46d7e54120883d75c5ea9a2dacc1c4ca8984ab80868684846040516129189493929190613cbe565b60405180910390a1505050505050565b600554604051632fe3f38f60e11b81526000916001600160a01b031690635fc7e71e9061296190309086908a908a908a90600401613b2b565b6020604051808303816000875af1158015612980573d6000803e3d6000fd5b505050506040513d601f19601f820116820180604052508101906129a49190613521565b905080156129c75780604051630a14d17960e11b81526004016107fe9190613011565b43600954146129e9576040516380965b1b60e01b815260040160405180910390fd5b43826001600160a01b0316636c540baf6040518163ffffffff1660e01b8152600401602060405180830381865afa158015612a28573d6000803e3d6000fd5b505050506040513d601f19601f82011682018060405250810190612a4c9190613521565b14612a6a57604051631046f38d60e31b815260040160405180910390fd5b846001600160a01b0316846001600160a01b031603612a9c57604051631bd1a62160e21b815260040160405180910390fd5b82600003612abd5760405163d29da7ef60e01b815260040160405180910390fd5b6000198303612adf57604051635982c5bb60e11b815260040160405180910390fd5b6000612aec868686612026565b60055460405163c488847b60e01b815291925060009182916001600160a01b03169063c488847b90612b2690309089908890600401613ca3565b6040805180830381865afa158015612b42573d6000803e3d6000fd5b505050506040513d601f19601f82011682018060405250810190612b669190613ccc565b9150915060008214612b8a5760405162461bcd60e51b81526004016107fe90613d4f565b6040516370a0823160e01b815281906001600160a01b038716906370a0823190612bb8908b906004016132bd565b602060405180830381865afa158015612bd5573d6000803e3d6000fd5b505050506040513d601f19601f82011682018060405250810190612bf99190613521565b1015612c175760405162461bcd60e51b81526004016107fe90613d93565b306001600160a01b03861603612c3857612c3330898984611ba3565b612ccb565b60405163b2a02ff160e01b81526000906001600160a01b0387169063b2a02ff190612c6b908c908c908790600401613ca3565b6020604051808303816000875af1158015612c8a573d6000803e3d6000fd5b505050506040513d601f19601f82011682018060405250810190612cae9190613521565b14612ccb5760405162461bcd60e51b81526004016107fe90613dce565b7f298637f684da70674f26509b10f07ec2fbc77a335ab1e7d6215a4b2484d8bb528888858885604051612d02959493929190613dde565b60405180910390a15050505050505050565b6011546040516370a0823160e01b81526000916001600160a01b0316908190839082906370a0823190612d4b9030906004016132bd565b602060405180830381865afa158015612d68573d6000803e3d6000fd5b505050506040513d601f19601f82011682018060405250810190612d8c9190613521565b6040516323b872dd60e01b81529091506001600160a01b038316906323b872dd90612dbf90899030908a90600401613ca3565b600060405180830381600087803b158015612dd957600080fd5b505af1158015612ded573d6000803e3d6000fd5b5050505060003d60008114612e095760208114612e1357600080fd5b6000199150612e1f565b60206000803e60005191505b5080612e3d5760405162461bcd60e51b81526004016107fe90613e3a565b6040516370a0823160e01b81526000906001600160a01b038616906370a0823190612e6c9030906004016132bd565b602060405180830381865afa158015612e89573d6000803e3d6000fd5b505050506040513d601f19601f82011682018060405250810190612ead9190613521565b9050612eb98382613a78565b98975050505050505050565b6000610abd612edc84670de0b6b3a7640000612763565b83516000610abd8284613ae1565b60005b83811015612f05578181015183820152602001612eed565b50506000910152565b6000612f18825190565b808452602084019350612f2f818560208601612eea565b601f01601f19169290920192915050565b60208082528101610abd8184612f0e565b60006001600160a01b0382166107c2565b612f6b81612f51565b8114612f7657600080fd5b50565b80356107c281612f62565b80612f6b565b80356107c281612f84565b60008060408385031215612fab57612fab600080fd5b6000612fb78585612f79565b9250506020612fc885828601612f8a565b9150509250929050565b8015155b82525050565b602081016107c28284612fd2565b600060208284031215612fff57612fff600080fd5b60006116dd8484612f8a565b80612fd6565b602081016107c2828461300b565b60006020828403121561303457613034600080fd5b60006116dd8484612f79565b60006107c282612f51565b612f6b81613040565b80356107c28161304b565b634e487b7160e01b600052604160045260246000fd5b601f19601f830116810181811067ffffffffffffffff8211171561309b5761309b61305f565b6040525050565b60006130ad60405190565b90506130b98282613075565b919050565b600067ffffffffffffffff8211156130d8576130d861305f565b601f19601f83011660200192915050565b82818337506000910152565b6000613108613103846130be565b6130a2565b90508281526020810184848401111561312357613123600080fd5b61312e8482856130e9565b509392505050565b600082601f83011261314a5761314a600080fd5b81356116dd8482602086016130f5565b60ff8116612f6b565b80356107c28161315a565b600080600080600080600060e0888a03121561318c5761318c600080fd5b60006131988a8a612f79565b97505060206131a98a828b01613054565b96505060406131ba8a828b01613054565b95505060606131cb8a828b01612f8a565b945050608088013567ffffffffffffffff8111156131eb576131eb600080fd5b6131f78a828b01613136565b93505060a088013567ffffffffffffffff81111561321757613217600080fd5b6132238a828b01613136565b92505060c06132348a828b01613163565b91505092959891949750929550565b60006020828403121561325857613258600080fd5b60006116dd8484613054565b60008060006060848603121561327c5761327c600080fd5b60006132888686612f79565b935050602061329986828701612f79565b92505060406132aa86828701612f8a565b9150509250925092565b612fd681612f51565b602081016107c282846132b4565b60ff8116612fd6565b602081016107c282846132cb565b60006107c26001600160a01b0383166132f9565b90565b6001600160a01b031690565b60006107c2826132e2565b60006107c282613305565b612fd681613310565b602081016107c2828461331b565b60008060008060008060c0878903121561334e5761334e600080fd5b600061335a8989613054565b965050602061336b89828a01613054565b955050604061337c89828a01612f8a565b945050606087013567ffffffffffffffff81111561339c5761339c600080fd5b6133a889828a01613136565b935050608087013567ffffffffffffffff8111156133c8576133c8600080fd5b6133d489828a01613136565b92505060a06133e589828a01613163565b9150509295509295509295565b60808101613400828761300b565b61340d602083018661300b565b61341a604083018561300b565b6114bc606083018461300b565b6000806040838503121561343d5761343d600080fd5b60006134498585612f79565b9250506020612fc885828601612f79565b60008060006060848603121561347257613472600080fd5b600061347e8686612f79565b935050602061348f86828701612f8a565b92505060406132aa86828701613054565b634e487b7160e01b600052602260045260246000fd5b6002810460018216806134ca57607f821691505b6020821081036134dc576134dc6134a0565b50919050565b600a8152600060208201691c994b595b9d195c995960b21b815291505b5060200190565b602080825281016107c2816134e2565b80516107c281612f84565b60006020828403121561353657613536600080fd5b60006116dd8484613516565b602f81526000602082017f4345726332303a3a7377656570546f6b656e3a206f6e6c792061646d696e206381526e616e20737765657020746f6b656e7360881b602082015291505b5060400190565b602080825281016107c281613542565b603281526000602082017f4345726332303a3a7377656570546f6b656e3a2063616e206e6f74207377656581527138103ab73232b9363cb4b733903a37b5b2b760711b6020820152915061358a565b602080825281016107c2816135a1565b6040810161360e828561331b565b610abd602083018461300b565b801515612f6b565b80516107c28161361b565b60006020828403121561364357613643600080fd5b60006116dd8484613623565b601c81526000602082017f6d61726b6572206d6574686f642072657475726e65642066616c736500000000815291506134ff565b602080825281016107c28161364f565b604081016136a1828561331b565b610abd602083018461331b565b602d81526000602082017f6f6e6c79207468652061646d696e206d6179207365742074686520636f6d702d81526c6c696b652064656c656761746560981b6020820152915061358a565b602080825281016107c2816136ae565b602481526000602082017f6f6e6c792061646d696e206d617920696e697469616c697a6520746865206d618152631c9ad95d60e21b6020820152915061358a565b602080825281016107c281613708565b602381526000602082017f6d61726b6574206d6179206f6e6c7920626520696e697469616c697a6564206f8152626e636560e81b6020820152915061358a565b602080825281016107c281613759565b603081526000602082017f696e697469616c2065786368616e67652072617465206d75737420626520677281526f32b0ba32b9103a3430b7103d32b9379760811b6020820152915061358a565b602080825281016107c2816137a9565b601a81526000602082017f73657474696e6720636f6d7074726f6c6c6572206661696c6564000000000000815291506134ff565b602080825281016107c281613806565b602281526000602082017f73657474696e6720696e7465726573742072617465206d6f64656c206661696c815261195960f21b6020820152915061358a565b602080825281016107c28161384a565b60006107c26132f68381565b6138ae83613899565b815460001960089490940293841b1916921b91909117905550565b60006138d68184846138a5565b505050565b818110156138f6576138ee6000826138c9565b6001016138db565b5050565b601f8211156138d6576000818152602090206020601f850104810160208510156139215750805b610d0a6020601f8601048301826138db565b815167ffffffffffffffff81111561394d5761394d61305f565b61395782546134b6565b6139628282856138fa565b6020601f831160018114613996576000841561397e5750858201515b600019600886021c1981166002860217865550610a11565b600085815260208120601f198616915b828110156139c657888501518255602094850194600190920191016139a6565b868310156139e25784890151600019601f89166008021c191682555b600160028802018855505050505050505050565b60608101613a04828661300b565b613a11602083018561300b565b6116dd604083018461300b565b601c81526000602082017f626f72726f772072617465206973206162737572646c79206869676800000000815291506134ff565b602080825281016107c281613a1e565b634e487b7160e01b600052601160045260246000fd5b818103818111156107c2576107c2613a62565b808201808211156107c2576107c2613a62565b604081016136a182856132b4565b818102808215838204851417613ac457613ac4613a62565b5092915050565b634e487b7160e01b600052601260045260246000fd5b600082613af057613af0613acb565b500490565b60808101613b0382876132b4565b613b1060208301866132b4565b61341a60408301856132b4565b60608101613a04828661331b565b60a08101613b3982886132b4565b613b4660208301876132b4565b613b5360408301866132b4565b613b6060608301856132b4565b613b6d608083018461300b565b9695505050505050565b60608101613a0482866132b4565b6040810161360e828561300b565b60a08101613ba182886132b4565b613bae60208301876132b4565b613bbb604083018661300b565b613b60606083018561300b565b601981526000602082017f544f4b454e5f5452414e534645525f4f55545f4641494c454400000000000000815291506134ff565b602080825281016107c281613bc8565b603481526000602082017f6f6e65206f662072656465656d546f6b656e73496e206f722072656465656d418152736d6f756e74496e206d757374206265207a65726f60601b6020820152915061358a565b602080825281016107c281613c0c565b60608101613c7b82866132b4565b613a11602083018561331b565b60808101613c9682876132b4565b61340d602083018661331b565b60608101613cb182866132b4565b613a1160208301856132b4565b60808101613400828761331b565b60008060408385031215613ce257613ce2600080fd5b6000613cee8585613516565b9250506020612fc885828601613516565b603381526000602082017f4c49515549444154455f434f4d5054524f4c4c45525f43414c43554c4154455f815272105353d5539517d4d152569157d19052531151606a1b6020820152915061358a565b602080825281016107c281613cff565b601881526000602082017f4c49515549444154455f5345495a455f544f4f5f4d5543480000000000000000815291506134ff565b602080825281016107c281613d5f565b60148152600060208201731d1bdad95b881cd95a5e9d5c994819985a5b195960621b815291506134ff565b602080825281016107c281613da3565b60a08101613dec82886132b4565b613df960208301876132b4565b613b53604083018661300b565b601881526000602082017f544f4b454e5f5452414e534645525f494e5f4641494c45440000000000000000815291506134ff565b602080825281016107c281613e0656feddf252ad1be2c89b69c2b068fc378daa952ba7f163c4a11628f55a4df523b3efa2646970667358221220316126227aa5e011599e075102b66f1ec99742bac9bcfcd6347f53194dd06f1e64736f6c63430008130033",
  "linkReferences": {},
  "deployedLinkReferences": {}
}