{
  "_format": "hh-sol-artifact-1",
  "contractName": "Comptroller",
  "sourceName": "contracts/Comptroller.sol",
  "address": "0xd26cCEdaCb5E1166e3285ba5EF9817f45F6bfA76",
  "abi": [
    {
      "inputs": [],
      "stateMutability": "nonpayable",
      "type": "constructor"
    },
    {
      "anonymous": false,
      "inputs": [
        {
          "indexed": false,
          "internalType": "string",
          "name": "action",
          "type": "string"
        },
        {
          "indexed": false,
          "internalType": "bool",
          "name": "pauseState",
          "type": "bool"
        }
      ],
      "name": "ActionPaused",
      "type": "event"
    },
    {
      "anonymous": false,
      "inputs": [
        {
          "indexed": false,
          "internalType": "contract CToken",
          "name": "cToken",
          "type": "address"
        },
        {
          "indexed": false,
          "internalType": "string",
          "name": "action",
          "type": "string"
        },
        {
          "indexed": false,
          "internalType": "bool",
          "name": "pauseState",
          "type": "bool"
        }
      ],
      "name": "ActionPaused",
      "type": "event"
    },
    {
      "anonymous": false,
      "inputs": [
        {
          "indexed": true,
          "internalType": "address",
          "name": "user",
          "type": "address"
        },
        {
          "indexed": false,
          "internalType": "uint256",
          "name": "oldCompAccrued",
          "type": "uint256"
        },
        {
          "indexed": false,
          "internalType": "uint256",
          "name": "newCompAccrued",
          "type": "uint256"
        }
      ],
      "name": "CompAccruedAdjusted",
      "type": "event"
    },
    {
      "anonymous": false,
      "inputs": [
        {
          "indexed": true,
          "internalType": "contract CToken",
          "name": "cToken",
          "type": "address"
        },
        {
          "indexed": false,
          "internalType": "uint256",
          "name": "newSpeed",
          "type": "uint256"
        }
      ],
      "name": "CompBorrowSpeedUpdated",
      "type": "event"
    },
    {
      "anonymous": false,
      "inputs": [
        {
          "indexed": false,
          "internalType": "address",
          "name": "recipient",
          "type": "address"
        },
        {
          "indexed": false,
          "internalType": "uint256",
          "name": "amount",
          "type": "uint256"
        }
      ],
      "name": "CompGranted",
      "type": "event"
    },
    {
      "anonymous": false,
      "inputs": [
        {
          "indexed": true,
          "internalType": "address",
          "name": "user",
          "type": "address"
        },
        {
          "indexed": false,
          "internalType": "uint256",
          "name": "oldCompReceivable",
          "type": "uint256"
        },
        {
          "indexed": false,
          "internalType": "uint256",
          "name": "newCompReceivable",
          "type": "uint256"
        }
      ],
      "name": "CompReceivableUpdated",
      "type": "event"
    },
    {
      "anonymous": false,
      "inputs": [
        {
          "indexed": true,
          "internalType": "contract CToken",
          "name": "cToken",
          "type": "address"
        },
        {
          "indexed": false,
          "internalType": "uint256",
          "name": "newSpeed",
          "type": "uint256"
        }
      ],
      "name": "CompSupplySpeedUpdated",
      "type": "event"
    },
    {
      "anonymous": false,
      "inputs": [
        {
          "indexed": true,
          "internalType": "address",
          "name": "contributor",
          "type": "address"
        },
        {
          "indexed": false,
          "internalType": "uint256",
          "name": "newSpeed",
          "type": "uint256"
        }
      ],
      "name": "ContributorCompSpeedUpdated",
      "type": "event"
    },
    {
      "anonymous": false,
      "inputs": [
        {
          "indexed": true,
          "internalType": "contract CToken",
          "name": "cToken",
          "type": "address"
        },
        {
          "indexed": true,
          "internalType": "address",
          "name": "borrower",
          "type": "address"
        },
        {
          "indexed": false,
          "internalType": "uint256",
          "name": "compDelta",
          "type": "uint256"
        },
        {
          "indexed": false,
          "internalType": "uint256",
          "name": "compBorrowIndex",
          "type": "uint256"
        }
      ],
      "name": "DistributedBorrowerComp",
      "type": "event"
    },
    {
      "anonymous": false,
      "inputs": [
        {
          "indexed": true,
          "internalType": "contract CToken",
          "name": "cToken",
          "type": "address"
        },
        {
          "indexed": true,
          "internalType": "address",
          "name": "supplier",
          "type": "address"
        },
        {
          "indexed": false,
          "internalType": "uint256",
          "name": "compDelta",
          "type": "uint256"
        },
        {
          "indexed": false,
          "internalType": "uint256",
          "name": "compSupplyIndex",
          "type": "uint256"
        }
      ],
      "name": "DistributedSupplierComp",
      "type": "event"
    },
    {
      "anonymous": false,
      "inputs": [
        {
          "indexed": false,
          "internalType": "uint256",
          "name": "error",
          "type": "uint256"
        },
        {
          "indexed": false,
          "internalType": "uint256",
          "name": "info",
          "type": "uint256"
        },
        {
          "indexed": false,
          "internalType": "uint256",
          "name": "detail",
          "type": "uint256"
        }
      ],
      "name": "Failure",
      "type": "event"
    },
    {
      "anonymous": false,
      "inputs": [
        {
          "indexed": false,
          "internalType": "contract CToken",
          "name": "cToken",
          "type": "address"
        },
        {
          "indexed": false,
          "internalType": "address",
          "name": "account",
          "type": "address"
        }
      ],
      "name": "MarketEntered",
      "type": "event"
    },
    {
      "anonymous": false,
      "inputs": [
        {
          "indexed": false,
          "internalType": "contract CToken",
          "name": "cToken",
          "type": "address"
        },
        {
          "indexed": false,
          "internalType": "address",
          "name": "account",
          "type": "address"
        }
      ],
      "name": "MarketExited",
      "type": "event"
    },
    {
      "anonymous": false,
      "inputs": [
        {
          "indexed": false,
          "internalType": "contract CToken",
          "name": "cToken",
          "type": "address"
        }
      ],
      "name": "MarketListed",
      "type": "event"
    },
    {
      "anonymous": false,
      "inputs": [
        {
          "indexed": true,
          "internalType": "contract CToken",
          "name": "cToken",
          "type": "address"
        },
        {
          "indexed": false,
          "internalType": "uint256",
          "name": "newBorrowCap",
          "type": "uint256"
        }
      ],
      "name": "NewBorrowCap",
      "type": "event"
    },
    {
      "anonymous": false,
      "inputs": [
        {
          "indexed": false,
          "internalType": "address",
          "name": "oldBorrowCapGuardian",
          "type": "address"
        },
        {
          "indexed": false,
          "internalType": "address",
          "name": "newBorrowCapGuardian",
          "type": "address"
        }
      ],
      "name": "NewBorrowCapGuardian",
      "type": "event"
    },
    {
      "anonymous": false,
      "inputs": [
        {
          "indexed": false,
          "internalType": "uint256",
          "name": "oldCloseFactorMantissa",
          "type": "uint256"
        },
        {
          "indexed": false,
          "internalType": "uint256",
          "name": "newCloseFactorMantissa",
          "type": "uint256"
        }
      ],
      "name": "NewCloseFactor",
      "type": "event"
    },
    {
      "anonymous": false,
      "inputs": [
        {
          "indexed": false,
          "internalType": "contract CToken",
          "name": "cToken",
          "type": "address"
        },
        {
          "indexed": false,
          "internalType": "uint256",
          "name": "oldCollateralFactorMantissa",
          "type": "uint256"
        },
        {
          "indexed": false,
          "internalType": "uint256",
          "name": "newCollateralFactorMantissa",
          "type": "uint256"
        }
      ],
      "name": "NewCollateralFactor",
      "type": "event"
    },
    {
      "anonymous": false,
      "inputs": [
        {
          "indexed": false,
          "internalType": "uint256",
          "name": "oldLiquidationIncentiveMantissa",
          "type": "uint256"
        },
        {
          "indexed": false,
          "internalType": "uint256",
          "name": "newLiquidationIncentiveMantissa",
          "type": "uint256"
        }
      ],
      "name": "NewLiquidationIncentive",
      "type": "event"
    },
    {
      "anonymous": false,
      "inputs": [
        {
          "indexed": false,
          "internalType": "address",
          "name": "oldPauseGuardian",
          "type": "address"
        },
        {
          "indexed": false,
          "internalType": "address",
          "name": "newPauseGuardian",
          "type": "address"
        }
      ],
      "name": "NewPauseGuardian",
      "type": "event"
    },
    {
      "anonymous": false,
      "inputs": [
        {
          "indexed": false,
          "internalType": "contract PriceOracle",
          "name": "oldPriceOracle",
          "type": "address"
        },
        {
          "indexed": false,
          "internalType": "contract PriceOracle",
          "name": "newPriceOracle",
          "type": "address"
        }
      ],
      "name": "NewPriceOracle",
      "type": "event"
    },
    {
      "inputs": [
        {
          "internalType": "contract Unitroller",
          "name": "unitroller",
          "type": "address"
        }
      ],
      "name": "_become",
      "outputs": [],
      "stateMutability": "nonpayable",
      "type": "function"
    },
    {
      "inputs": [],
      "name": "_borrowGuardianPaused",
      "outputs": [
        {
          "internalType": "bool",
          "name": "",
          "type": "bool"
        }
      ],
      "stateMutability": "view",
      "type": "function"
    },
    {
      "inputs": [
        {
          "internalType": "address",
          "name": "recipient",
          "type": "address"
        },
        {
          "internalType": "uint256",
          "name": "amount",
          "type": "uint256"
        }
      ],
      "name": "_grantComp",
      "outputs": [],
      "stateMutability": "nonpayable",
      "type": "function"
    },
    {
      "inputs": [],
      "name": "_mintGuardianPaused",
      "outputs": [
        {
          "internalType": "bool",
          "name": "",
          "type": "bool"
        }
      ],
      "stateMutability": "view",
      "type": "function"
    },
    {
      "inputs": [
        {
          "internalType": "address",
          "name": "newBorrowCapGuardian",
          "type": "address"
        }
      ],
      "name": "_setBorrowCapGuardian",
      "outputs": [],
      "stateMutability": "nonpayable",
      "type": "function"
    },
    {
      "inputs": [
        {
          "internalType": "contract CToken",
          "name": "cToken",
          "type": "address"
        },
        {
          "internalType": "bool",
          "name": "state",
          "type": "bool"
        }
      ],
      "name": "_setBorrowPaused",
      "outputs": [
        {
          "internalType": "bool",
          "name": "",
          "type": "bool"
        }
      ],
      "stateMutability": "nonpayable",
      "type": "function"
    },
    {
      "inputs": [
        {
          "internalType": "uint256",
          "name": "newCloseFactorMantissa",
          "type": "uint256"
        }
      ],
      "name": "_setCloseFactor",
      "outputs": [
        {
          "internalType": "uint256",
          "name": "",
          "type": "uint256"
        }
      ],
      "stateMutability": "nonpayable",
      "type": "function"
    },
    {
      "inputs": [
        {
          "internalType": "contract CToken",
          "name": "cToken",
          "type": "address"
        },
        {
          "internalType": "uint256",
          "name": "newCollateralFactorMantissa",
          "type": "uint256"
        }
      ],
      "name": "_setCollateralFactor",
      "outputs": [
        {
          "internalType": "uint256",
          "name": "",
          "type": "uint256"
        }
      ],
      "stateMutability": "nonpayable",
      "type": "function"
    },
    {
      "inputs": [
        {
          "internalType": "contract CToken[]",
          "name": "cTokens",
          "type": "address[]"
        },
        {
          "internalType": "uint256[]",
          "name": "supplySpeeds",
          "type": "uint256[]"
        },
        {
          "internalType": "uint256[]",
          "name": "borrowSpeeds",
          "type": "uint256[]"
        }
      ],
      "name": "_setCompSpeeds",
      "outputs": [],
      "stateMutability": "nonpayable",
      "type": "function"
    },
    {
      "inputs": [
        {
          "internalType": "address",
          "name": "contributor",
          "type": "address"
        },
        {
          "internalType": "uint256",
          "name": "compSpeed",
          "type": "uint256"
        }
      ],
      "name": "_setContributorCompSpeed",
      "outputs": [],
      "stateMutability": "nonpayable",
      "type": "function"
    },
    {
      "inputs": [
        {
          "internalType": "uint256",
          "name": "newLiquidationIncentiveMantissa",
          "type": "uint256"
        }
      ],
      "name": "_setLiquidationIncentive",
      "outputs": [
        {
          "internalType": "uint256",
          "name": "",
          "type": "uint256"
        }
      ],
      "stateMutability": "nonpayable",
      "type": "function"
    },
    {
      "inputs": [
        {
          "internalType": "contract CToken[]",
          "name": "cTokens",
          "type": "address[]"
        },
        {
          "internalType": "uint256[]",
          "name": "newBorrowCaps",
          "type": "uint256[]"
        }
      ],
      "name": "_setMarketBorrowCaps",
      "outputs": [],
      "stateMutability": "nonpayable",
      "type": "function"
    },
    {
      "inputs": [
        {
          "internalType": "contract CToken",
          "name": "cToken",
          "type": "address"
        },
        {
          "internalType": "bool",
          "name": "state",
          "type": "bool"
        }
      ],
      "name": "_setMintPaused",
      "outputs": [
        {
          "internalType": "bool",
          "name": "",
          "type": "bool"
        }
      ],
      "stateMutability": "nonpayable",
      "type": "function"
    },
    {
      "inputs": [
        {
          "internalType": "address",
          "name": "newPauseGuardian",
          "type": "address"
        }
      ],
      "name": "_setPauseGuardian",
      "outputs": [
        {
          "internalType": "uint256",
          "name": "",
          "type": "uint256"
        }
      ],
      "stateMutability": "nonpayable",
      "type": "function"
    },
    {
      "inputs": [
        {
          "internalType": "contract PriceOracle",
          "name": "newOracle",
          "type": "address"
        }
      ],
      "name": "_setPriceOracle",
      "outputs": [
        {
          "internalType": "uint256",
          "name": "",
          "type": "uint256"
        }
      ],
      "stateMutability": "nonpayable",
      "type": "function"
    },
    {
      "inputs": [
        {
          "internalType": "bool",
          "name": "state",
          "type": "bool"
        }
      ],
      "name": "_setSeizePaused",
      "outputs": [
        {
          "internalType": "bool",
          "name": "",
          "type": "bool"
        }
      ],
      "stateMutability": "nonpayable",
      "type": "function"
    },
    {
      "inputs": [
        {
          "internalType": "bool",
          "name": "state",
          "type": "bool"
        }
      ],
      "name": "_setTransferPaused",
      "outputs": [
        {
          "internalType": "bool",
          "name": "",
          "type": "bool"
        }
      ],
      "stateMutability": "nonpayable",
      "type": "function"
    },
    {
      "inputs": [
        {
          "internalType": "contract CToken",
          "name": "cToken",
          "type": "address"
        }
      ],
      "name": "_supportMarket",
      "outputs": [
        {
          "internalType": "uint256",
          "name": "",
          "type": "uint256"
        }
      ],
      "stateMutability": "nonpayable",
      "type": "function"
    },
    {
      "inputs": [
        {
          "internalType": "address",
          "name": "",
          "type": "address"
        },
        {
          "internalType": "uint256",
          "name": "",
          "type": "uint256"
        }
      ],
      "name": "accountAssets",
      "outputs": [
        {
          "internalType": "contract CToken",
          "name": "",
          "type": "address"
        }
      ],
      "stateMutability": "view",
      "type": "function"
    },
    {
      "inputs": [],
      "name": "admin",
      "outputs": [
        {
          "internalType": "address",
          "name": "",
          "type": "address"
        }
      ],
      "stateMutability": "view",
      "type": "function"
    },
    {
      "inputs": [
        {
          "internalType": "uint256",
          "name": "",
          "type": "uint256"
        }
      ],
      "name": "allMarkets",
      "outputs": [
        {
          "internalType": "contract CToken",
          "name": "",
          "type": "address"
        }
      ],
      "stateMutability": "view",
      "type": "function"
    },
    {
      "inputs": [
        {
          "internalType": "address",
          "name": "cToken",
          "type": "address"
        },
        {
          "internalType": "address",
          "name": "borrower",
          "type": "address"
        },
        {
          "internalType": "uint256",
          "name": "borrowAmount",
          "type": "uint256"
        }
      ],
      "name": "borrowAllowed",
      "outputs": [
        {
          "internalType": "uint256",
          "name": "",
          "type": "uint256"
        }
      ],
      "stateMutability": "nonpayable",
      "type": "function"
    },
    {
      "inputs": [],
      "name": "borrowCapGuardian",
      "outputs": [
        {
          "internalType": "address",
          "name": "",
          "type": "address"
        }
      ],
      "stateMutability": "view",
      "type": "function"
    },
    {
      "inputs": [
        {
          "internalType": "address",
          "name": "",
          "type": "address"
        }
      ],
      "name": "borrowCaps",
      "outputs": [
        {
          "internalType": "uint256",
          "name": "",
          "type": "uint256"
        }
      ],
      "stateMutability": "view",
      "type": "function"
    },
    {
      "inputs": [
        {
          "internalType": "address",
          "name": "",
          "type": "address"
        }
      ],
      "name": "borrowGuardianPaused",
      "outputs": [
        {
          "internalType": "bool",
          "name": "",
          "type": "bool"
        }
      ],
      "stateMutability": "view",
      "type": "function"
    },
    {
      "inputs": [
        {
          "internalType": "address",
          "name": "cToken",
          "type": "address"
        },
        {
          "internalType": "address",
          "name": "borrower",
          "type": "address"
        },
        {
          "internalType": "uint256",
          "name": "borrowAmount",
          "type": "uint256"
        }
      ],
      "name": "borrowVerify",
      "outputs": [],
      "stateMutability": "nonpayable",
      "type": "function"
    },
    {
      "inputs": [
        {
          "internalType": "address",
          "name": "account",
          "type": "address"
        },
        {
          "internalType": "contract CToken",
          "name": "cToken",
          "type": "address"
        }
      ],
      "name": "checkMembership",
      "outputs": [
        {
          "internalType": "bool",
          "name": "",
          "type": "bool"
        }
      ],
      "stateMutability": "view",
      "type": "function"
    },
    {
      "inputs": [
        {
          "internalType": "address",
          "name": "holder",
          "type": "address"
        },
        {
          "internalType": "contract CToken[]",
          "name": "cTokens",
          "type": "address[]"
        }
      ],
      "name": "claimComp",
      "outputs": [],
      "stateMutability": "nonpayable",
      "type": "function"
    },
    {
      "inputs": [
        {
          "internalType": "address[]",
          "name": "holders",
          "type": "address[]"
        },
        {
          "internalType": "contract CToken[]",
          "name": "cTokens",
          "type": "address[]"
        },
        {
          "internalType": "bool",
          "name": "borrowers",
          "type": "bool"
        },
        {
          "internalType": "bool",
          "name": "suppliers",
          "type": "bool"
        }
      ],
      "name": "claimComp",
      "outputs": [],
      "stateMutability": "nonpayable",
      "type": "function"
    },
    {
      "inputs": [
        {
          "internalType": "address",
          "name": "holder",
          "type": "address"
        }
      ],
      "name": "claimComp",
      "outputs": [],
      "stateMutability": "nonpayable",
      "type": "function"
    },
    {
      "inputs": [],
      "name": "closeFactorMantissa",
      "outputs": [
        {
          "internalType": "uint256",
          "name": "",
          "type": "uint256"
        }
      ],
      "stateMutability": "view",
      "type": "function"
    },
    {
      "inputs": [
        {
          "internalType": "address",
          "name": "",
          "type": "address"
        }
      ],
      "name": "compAccrued",
      "outputs": [
        {
          "internalType": "uint256",
          "name": "",
          "type": "uint256"
        }
      ],
      "stateMutability": "view",
      "type": "function"
    },
    {
      "inputs": [
        {
          "internalType": "address",
          "name": "",
          "type": "address"
        }
      ],
      "name": "compBorrowSpeeds",
      "outputs": [
        {
          "internalType": "uint256",
          "name": "",
          "type": "uint256"
        }
      ],
      "stateMutability": "view",
      "type": "function"
    },
    {
      "inputs": [
        {
          "internalType": "address",
          "name": "",
          "type": "address"
        }
      ],
      "name": "compBorrowState",
      "outputs": [
        {
          "internalType": "uint224",
          "name": "index",
          "type": "uint224"
        },
        {
          "internalType": "uint32",
          "name": "block",
          "type": "uint32"
        }
      ],
      "stateMutability": "view",
      "type": "function"
    },
    {
      "inputs": [
        {
          "internalType": "address",
          "name": "",
          "type": "address"
        },
        {
          "internalType": "address",
          "name": "",
          "type": "address"
        }
      ],
      "name": "compBorrowerIndex",
      "outputs": [
        {
          "internalType": "uint256",
          "name": "",
          "type": "uint256"
        }
      ],
      "stateMutability": "view",
      "type": "function"
    },
    {
      "inputs": [
        {
          "internalType": "address",
          "name": "",
          "type": "address"
        }
      ],
      "name": "compContributorSpeeds",
      "outputs": [
        {
          "internalType": "uint256",
          "name": "",
          "type": "uint256"
        }
      ],
      "stateMutability": "view",
      "type": "function"
    },
    {
      "inputs": [],
      "name": "compInitialIndex",
      "outputs": [
        {
          "internalType": "uint224",
          "name": "",
          "type": "uint224"
        }
      ],
      "stateMutability": "view",
      "type": "function"
    },
    {
      "inputs": [],
      "name": "compRate",
      "outputs": [
        {
          "internalType": "uint256",
          "name": "",
          "type": "uint256"
        }
      ],
      "stateMutability": "view",
      "type": "function"
    },
    {
      "inputs": [
        {
          "internalType": "address",
          "name": "",
          "type": "address"
        }
      ],
      "name": "compReceivable",
      "outputs": [
        {
          "internalType": "uint256",
          "name": "",
          "type": "uint256"
        }
      ],
      "stateMutability": "view",
      "type": "function"
    },
    {
      "inputs": [
        {
          "internalType": "address",
          "name": "",
          "type": "address"
        }
      ],
      "name": "compSpeeds",
      "outputs": [
        {
          "internalType": "uint256",
          "name": "",
          "type": "uint256"
        }
      ],
      "stateMutability": "view",
      "type": "function"
    },
    {
      "inputs": [
        {
          "internalType": "address",
          "name": "",
          "type": "address"
        },
        {
          "internalType": "address",
          "name": "",
          "type": "address"
        }
      ],
      "name": "compSupplierIndex",
      "outputs": [
        {
          "internalType": "uint256",
          "name": "",
          "type": "uint256"
        }
      ],
      "stateMutability": "view",
      "type": "function"
    },
    {
      "inputs": [
        {
          "internalType": "address",
          "name": "",
          "type": "address"
        }
      ],
      "name": "compSupplySpeeds",
      "outputs": [
        {
          "internalType": "uint256",
          "name": "",
          "type": "uint256"
        }
      ],
      "stateMutability": "view",
      "type": "function"
    },
    {
      "inputs": [
        {
          "internalType": "address",
          "name": "",
          "type": "address"
        }
      ],
      "name": "compSupplyState",
      "outputs": [
        {
          "internalType": "uint224",
          "name": "index",
          "type": "uint224"
        },
        {
          "internalType": "uint32",
          "name": "block",
          "type": "uint32"
        }
      ],
      "stateMutability": "view",
      "type": "function"
    },
    {
      "inputs": [],
      "name": "comptrollerImplementation",
      "outputs": [
        {
          "internalType": "address",
          "name": "",
          "type": "address"
        }
      ],
      "stateMutability": "view",
      "type": "function"
    },
    {
      "inputs": [
        {
          "internalType": "address[]",
          "name": "cTokens",
          "type": "address[]"
        }
      ],
      "name": "enterMarkets",
      "outputs": [
        {
          "internalType": "uint256[]",
          "name": "",
          "type": "uint256[]"
        }
      ],
      "stateMutability": "nonpayable",
      "type": "function"
    },
    {
      "inputs": [
        {
          "internalType": "address",
          "name": "cTokenAddress",
          "type": "address"
        }
      ],
      "name": "exitMarket",
      "outputs": [
        {
          "internalType": "uint256",
          "name": "",
          "type": "uint256"
        }
      ],
      "stateMutability": "nonpayable",
      "type": "function"
    },
    {
      "inputs": [
        {
          "internalType": "address[]",
          "name": "affectedUsers",
          "type": "address[]"
        },
        {
          "internalType": "uint256[]",
          "name": "amounts",
          "type": "uint256[]"
        }
      ],
      "name": "fixBadAccruals",
      "outputs": [],
      "stateMutability": "nonpayable",
      "type": "function"
    },
    {
      "inputs": [
        {
          "internalType": "address",
          "name": "account",
          "type": "address"
        }
      ],
      "name": "getAccountLiquidity",
      "outputs": [
        {
          "internalType": "uint256",
          "name": "",
          "type": "uint256"
        },
        {
          "internalType": "uint256",
          "name": "",
          "type": "uint256"
        },
        {
          "internalType": "uint256",
          "name": "",
          "type": "uint256"
        }
      ],
      "stateMutability": "view",
      "type": "function"
    },
    {
      "inputs": [],
      "name": "getAllMarkets",
      "outputs": [
        {
          "internalType": "contract CToken[]",
          "name": "",
          "type": "address[]"
        }
      ],
      "stateMutability": "view",
      "type": "function"
    },
    {
      "inputs": [
        {
          "internalType": "address",
          "name": "account",
          "type": "address"
        }
      ],
      "name": "getAssetsIn",
      "outputs": [
        {
          "internalType": "contract CToken[]",
          "name": "",
          "type": "address[]"
        }
      ],
      "stateMutability": "view",
      "type": "function"
    },
    {
      "inputs": [],
      "name": "getBlockNumber",
      "outputs": [
        {
          "internalType": "uint256",
          "name": "",
          "type": "uint256"
        }
      ],
      "stateMutability": "view",
      "type": "function"
    },
    {
      "inputs": [],
      "name": "getCompAddress",
      "outputs": [
        {
          "internalType": "address",
          "name": "",
          "type": "address"
        }
      ],
      "stateMutability": "view",
      "type": "function"
    },
    {
      "inputs": [
        {
          "internalType": "address",
          "name": "account",
          "type": "address"
        },
        {
          "internalType": "address",
          "name": "cTokenModify",
          "type": "address"
        },
        {
          "internalType": "uint256",
          "name": "redeemTokens",
          "type": "uint256"
        },
        {
          "internalType": "uint256",
          "name": "borrowAmount",
          "type": "uint256"
        }
      ],
      "name": "getHypotheticalAccountLiquidity",
      "outputs": [
        {
          "internalType": "uint256",
          "name": "",
          "type": "uint256"
        },
        {
          "internalType": "uint256",
          "name": "",
          "type": "uint256"
        },
        {
          "internalType": "uint256",
          "name": "",
          "type": "uint256"
        }
      ],
      "stateMutability": "view",
      "type": "function"
    },
    {
      "inputs": [],
      "name": "isComptroller",
      "outputs": [
        {
          "internalType": "bool",
          "name": "",
          "type": "bool"
        }
      ],
      "stateMutability": "view",
      "type": "function"
    },
    {
      "inputs": [
        {
          "internalType": "contract CToken",
          "name": "cToken",
          "type": "address"
        }
      ],
      "name": "isDeprecated",
      "outputs": [
        {
          "internalType": "bool",
          "name": "",
          "type": "bool"
        }
      ],
      "stateMutability": "view",
      "type": "function"
    },
    {
      "inputs": [
        {
          "internalType": "address",
          "name": "",
          "type": "address"
        }
      ],
      "name": "lastContributorBlock",
      "outputs": [
        {
          "internalType": "uint256",
          "name": "",
          "type": "uint256"
        }
      ],
      "stateMutability": "view",
      "type": "function"
    },
    {
      "inputs": [
        {
          "internalType": "address",
          "name": "cTokenBorrowed",
          "type": "address"
        },
        {
          "internalType": "address",
          "name": "cTokenCollateral",
          "type": "address"
        },
        {
          "internalType": "address",
          "name": "liquidator",
          "type": "address"
        },
        {
          "internalType": "address",
          "name": "borrower",
          "type": "address"
        },
        {
          "internalType": "uint256",
          "name": "repayAmount",
          "type": "uint256"
        }
      ],
      "name": "liquidateBorrowAllowed",
      "outputs": [
        {
          "internalType": "uint256",
          "name": "",
          "type": "uint256"
        }
      ],
      "stateMutability": "nonpayable",
      "type": "function"
    },
    {
      "inputs": [
        {
          "internalType": "address",
          "name": "cTokenBorrowed",
          "type": "address"
        },
        {
          "internalType": "address",
          "name": "cTokenCollateral",
          "type": "address"
        },
        {
          "internalType": "address",
          "name": "liquidator",
          "type": "address"
        },
        {
          "internalType": "address",
          "name": "borrower",
          "type": "address"
        },
        {
          "internalType": "uint256",
          "name": "actualRepayAmount",
          "type": "uint256"
        },
        {
          "internalType": "uint256",
          "name": "seizeTokens",
          "type": "uint256"
        }
      ],
      "name": "liquidateBorrowVerify",
      "outputs": [],
      "stateMutability": "nonpayable",
      "type": "function"
    },
    {
      "inputs": [
        {
          "internalType": "address",
          "name": "cTokenBorrowed",
          "type": "address"
        },
        {
          "internalType": "address",
          "name": "cTokenCollateral",
          "type": "address"
        },
        {
          "internalType": "uint256",
          "name": "actualRepayAmount",
          "type": "uint256"
        }
      ],
      "name": "liquidateCalculateSeizeTokens",
      "outputs": [
        {
          "internalType": "uint256",
          "name": "",
          "type": "uint256"
        },
        {
          "internalType": "uint256",
          "name": "",
          "type": "uint256"
        }
      ],
      "stateMutability": "view",
      "type": "function"
    },
    {
      "inputs": [],
      "name": "liquidationIncentiveMantissa",
      "outputs": [
        {
          "internalType": "uint256",
          "name": "",
          "type": "uint256"
        }
      ],
      "stateMutability": "view",
      "type": "function"
    },
    {
      "inputs": [
        {
          "internalType": "address",
          "name": "",
          "type": "address"
        }
      ],
      "name": "markets",
      "outputs": [
        {
          "internalType": "bool",
          "name": "isListed",
          "type": "bool"
        },
        {
          "internalType": "uint256",
          "name": "collateralFactorMantissa",
          "type": "uint256"
        },
        {
          "internalType": "bool",
          "name": "isComped",
          "type": "bool"
        }
      ],
      "stateMutability": "view",
      "type": "function"
    },
    {
      "inputs": [],
      "name": "maxAssets",
      "outputs": [
        {
          "internalType": "uint256",
          "name": "",
          "type": "uint256"
        }
      ],
      "stateMutability": "view",
      "type": "function"
    },
    {
      "inputs": [
        {
          "internalType": "address",
          "name": "cToken",
          "type": "address"
        },
        {
          "internalType": "address",
          "name": "minter",
          "type": "address"
        },
        {
          "internalType": "uint256",
          "name": "mintAmount",
          "type": "uint256"
        }
      ],
      "name": "mintAllowed",
      "outputs": [
        {
          "internalType": "uint256",
          "name": "",
          "type": "uint256"
        }
      ],
      "stateMutability": "nonpayable",
      "type": "function"
    },
    {
      "inputs": [
        {
          "internalType": "address",
          "name": "",
          "type": "address"
        }
      ],
      "name": "mintGuardianPaused",
      "outputs": [
        {
          "internalType": "bool",
          "name": "",
          "type": "bool"
        }
      ],
      "stateMutability": "view",
      "type": "function"
    },
    {
      "inputs": [
        {
          "internalType": "address",
          "name": "cToken",
          "type": "address"
        },
        {
          "internalType": "address",
          "name": "minter",
          "type": "address"
        },
        {
          "internalType": "uint256",
          "name": "actualMintAmount",
          "type": "uint256"
        },
        {
          "internalType": "uint256",
          "name": "mintTokens",
          "type": "uint256"
        }
      ],
      "name": "mintVerify",
      "outputs": [],
      "stateMutability": "nonpayable",
      "type": "function"
    },
    {
      "inputs": [],
      "name": "oracle",
      "outputs": [
        {
          "internalType": "contract PriceOracle",
          "name": "",
          "type": "address"
        }
      ],
      "stateMutability": "view",
      "type": "function"
    },
    {
      "inputs": [],
      "name": "pauseGuardian",
      "outputs": [
        {
          "internalType": "address",
          "name": "",
          "type": "address"
        }
      ],
      "stateMutability": "view",
      "type": "function"
    },
    {
      "inputs": [],
      "name": "pendingAdmin",
      "outputs": [
        {
          "internalType": "address",
          "name": "",
          "type": "address"
        }
      ],
      "stateMutability": "view",
      "type": "function"
    },
    {
      "inputs": [],
      "name": "pendingComptrollerImplementation",
      "outputs": [
        {
          "internalType": "address",
          "name": "",
          "type": "address"
        }
      ],
      "stateMutability": "view",
      "type": "function"
    },
    {
      "inputs": [],
      "name": "proposal65FixExecuted",
      "outputs": [
        {
          "internalType": "bool",
          "name": "",
          "type": "bool"
        }
      ],
      "stateMutability": "view",
      "type": "function"
    },
    {
      "inputs": [
        {
          "internalType": "address",
          "name": "cToken",
          "type": "address"
        },
        {
          "internalType": "address",
          "name": "redeemer",
          "type": "address"
        },
        {
          "internalType": "uint256",
          "name": "redeemTokens",
          "type": "uint256"
        }
      ],
      "name": "redeemAllowed",
      "outputs": [
        {
          "internalType": "uint256",
          "name": "",
          "type": "uint256"
        }
      ],
      "stateMutability": "nonpayable",
      "type": "function"
    },
    {
      "inputs": [
        {
          "internalType": "address",
          "name": "cToken",
          "type": "address"
        },
        {
          "internalType": "address",
          "name": "redeemer",
          "type": "address"
        },
        {
          "internalType": "uint256",
          "name": "redeemAmount",
          "type": "uint256"
        },
        {
          "internalType": "uint256",
          "name": "redeemTokens",
          "type": "uint256"
        }
      ],
      "name": "redeemVerify",
      "outputs": [],
      "stateMutability": "nonpayable",
      "type": "function"
    },
    {
      "inputs": [
        {
          "internalType": "address",
          "name": "cToken",
          "type": "address"
        },
        {
          "internalType": "address",
          "name": "payer",
          "type": "address"
        },
        {
          "internalType": "address",
          "name": "borrower",
          "type": "address"
        },
        {
          "internalType": "uint256",
          "name": "repayAmount",
          "type": "uint256"
        }
      ],
      "name": "repayBorrowAllowed",
      "outputs": [
        {
          "internalType": "uint256",
          "name": "",
          "type": "uint256"
        }
      ],
      "stateMutability": "nonpayable",
      "type": "function"
    },
    {
      "inputs": [
        {
          "internalType": "address",
          "name": "cToken",
          "type": "address"
        },
        {
          "internalType": "address",
          "name": "payer",
          "type": "address"
        },
        {
          "internalType": "address",
          "name": "borrower",
          "type": "address"
        },
        {
          "internalType": "uint256",
          "name": "actualRepayAmount",
          "type": "uint256"
        },
        {
          "internalType": "uint256",
          "name": "borrowerIndex",
          "type": "uint256"
        }
      ],
      "name": "repayBorrowVerify",
      "outputs": [],
      "stateMutability": "nonpayable",
      "type": "function"
    },
    {
      "inputs": [
        {
          "internalType": "address",
          "name": "cTokenCollateral",
          "type": "address"
        },
        {
          "internalType": "address",
          "name": "cTokenBorrowed",
          "type": "address"
        },
        {
          "internalType": "address",
          "name": "liquidator",
          "type": "address"
        },
        {
          "internalType": "address",
          "name": "borrower",
          "type": "address"
        },
        {
          "internalType": "uint256",
          "name": "seizeTokens",
          "type": "uint256"
        }
      ],
      "name": "seizeAllowed",
      "outputs": [
        {
          "internalType": "uint256",
          "name": "",
          "type": "uint256"
        }
      ],
      "stateMutability": "nonpayable",
      "type": "function"
    },
    {
      "inputs": [],
      "name": "seizeGuardianPaused",
      "outputs": [
        {
          "internalType": "bool",
          "name": "",
          "type": "bool"
        }
      ],
      "stateMutability": "view",
      "type": "function"
    },
    {
      "inputs": [
        {
          "internalType": "address",
          "name": "cTokenCollateral",
          "type": "address"
        },
        {
          "internalType": "address",
          "name": "cTokenBorrowed",
          "type": "address"
        },
        {
          "internalType": "address",
          "name": "liquidator",
          "type": "address"
        },
        {
          "internalType": "address",
          "name": "borrower",
          "type": "address"
        },
        {
          "internalType": "uint256",
          "name": "seizeTokens",
          "type": "uint256"
        }
      ],
      "name": "seizeVerify",
      "outputs": [],
      "stateMutability": "nonpayable",
      "type": "function"
    },
    {
      "inputs": [
        {
          "internalType": "address",
          "name": "cToken",
          "type": "address"
        },
        {
          "internalType": "address",
          "name": "src",
          "type": "address"
        },
        {
          "internalType": "address",
          "name": "dst",
          "type": "address"
        },
        {
          "internalType": "uint256",
          "name": "transferTokens",
          "type": "uint256"
        }
      ],
      "name": "transferAllowed",
      "outputs": [
        {
          "internalType": "uint256",
          "name": "",
          "type": "uint256"
        }
      ],
      "stateMutability": "nonpayable",
      "type": "function"
    },
    {
      "inputs": [],
      "name": "transferGuardianPaused",
      "outputs": [
        {
          "internalType": "bool",
          "name": "",
          "type": "bool"
        }
      ],
      "stateMutability": "view",
      "type": "function"
    },
    {
      "inputs": [
        {
          "internalType": "address",
          "name": "cToken",
          "type": "address"
        },
        {
          "internalType": "address",
          "name": "src",
          "type": "address"
        },
        {
          "internalType": "address",
          "name": "dst",
          "type": "address"
        },
        {
          "internalType": "uint256",
          "name": "transferTokens",
          "type": "uint256"
        }
      ],
      "name": "transferVerify",
      "outputs": [],
      "stateMutability": "nonpayable",
      "type": "function"
    },
    {
      "inputs": [
        {
          "internalType": "address",
          "name": "contributor",
          "type": "address"
        }
      ],
      "name": "updateContributorRewards",
      "outputs": [],
      "stateMutability": "nonpayable",
      "type": "function"
    }
  ],
  "bytecode": "0x608060405234801561001057600080fd5b50600080546001600160a01b03191633179055615a4d80620000336000396000f3fe608060405234801561001057600080fd5b506004361061048a5760003560e01c8063731f0c2b11610262578063b21be7fd11610151578063dce15449116100ce578063e9af029211610092578063e9af029214610bc2578063eabe7d9114610bd5578063ede4edd014610be8578063f00a7a9214610bfb578063f4a433c014610c08578063f851a44014610c2857600080fd5b8063dce1544914610b6c578063dcfbc0c714610b7f578063e4028eee14610b92578063e6653f3d14610ba5578063e875544614610bb957600080fd5b8063c488847b11610115578063c488847b14610ada578063ca0af04314610afb578063cc7ebdc414610b26578063d02f735114610b46578063da3d454c14610b5957600080fd5b8063b21be7fd14610a49578063bb82aa5e14610a74578063bdcdc25814610a87578063bea6b8b814610a9a578063c299823814610aba57600080fd5b806394b2294b116101df578063a8b43948116101a3578063a8b43948146109f1578063aa90075414610a04578063abfceffc14610a0d578063ac0b0bb714610a2d578063b0772d0b14610a4157600080fd5b806394b2294b14610979578063986ab838146109825780639d1b5a0a146109a2578063a76b3fda146109bc578063a7f0e231146109cf57600080fd5b80638c57804e116102265780638c57804e146108975780638e8f294b146108cf5780638ebf636414610912578063929fe9a11461092557806394543c151461096657600080fd5b8063731f0c2b1461081a578063741b25251461083d5780637dc0d1d01461085057806385b7beb81461086357806387f763031461088357600080fd5b80634a5844321161037e5780635ec88c79116102fb5780636a56947e116102bf5780636a56947e146107755780636aa875b5146107835780636b79c38d146107a35780636d154ea5146107e95780636d35bf911461080c57600080fd5b80635ec88c79146107165780635f5af1aa146107295780635fc7e71e1461073c578063607ef6c11461074f5780636810dfa61461076257600080fd5b806351dff9891161034257806351dff989146106aa57806352d84d1e146106bd57806355ee1fe1146106dd578063598ee1cb146106f05780635c7786051461070357600080fd5b80634a584432146106395780634ada90af146106595780634e79238f146106625780634ef4c3e1146106845780634fd42e171461069757600080fd5b8063267822471161040c5780633bcf7ec1116103d05780633bcf7ec1146105e25780633c94786f146105f557806341c728b91461060957806342cbb15c1461061d57806347ef3b3b1461062357600080fd5b8063267822471461058357806327efe3cb146105965780632d70db78146105a9578063317b0b77146105bc578063391957d7146105cf57600080fd5b80631d7b33d7116104535780631d7b33d7146104fb5780631ededc911461052857806321af45691461053d57806324008a621461055d57806324a3d6221461057057600080fd5b80627e3dd21461048f57806316b95e8f146104ad57806318c882a5146104c25780631c3db2e0146104d55780631d504dc6146104e8575b600080fd5b610497600181565b6040516104a491906143ed565b60405180910390f35b6104c06104bb36600461444c565b610c3b565b005b6104976104d0366004614511565b610e4d565b6104c06104e3366004614667565b610f62565b6104c06104f63660046146b4565b610fc5565b61051b6105093660046146d5565b600f6020526000908152604090205481565b6040516104a491906146fc565b6104c061053636600461471b565b5050505050565b601554610550906001600160a01b031681565b6040516104a4919061479c565b61051b61056b3660046147aa565b6110db565b600a54610550906001600160a01b031681565b600154610550906001600160a01b031681565b6104c06105a436600461480e565b611199565b6104976105b7366004614841565b611227565b61051b6105ca366004614862565b6112f3565b6104c06105dd3660046146d5565b61136a565b6104976105f0366004614511565b6113f3565b600a5461049790600160a01b900460ff1681565b6104c0610617366004614883565b50505050565b4361051b565b6104c06106313660046148ca565b505050505050565b61051b6106473660046146d5565b60166020526000908152604090205481565b61051b60065481565b610675610670366004614883565b6114f7565b6040516104a493929190614954565b61051b61069236600461497c565b611537565b61051b6106a5366004614862565b6115b7565b6104c06106b8366004614883565b611610565b6106d06106cb366004614862565b61163b565b6040516104a49190614a0e565b61051b6106eb3660046146b4565b611665565b6104c06106fe36600461480e565b6116d7565b6104c061071136600461497c565b505050565b6106756107243660046146d5565b61179c565b61051b6107373660046146d5565b6117d7565b61051b61074a366004614a1c565b611848565b6104c061075d36600461444c565b6119db565b6104c0610770366004614aeb565b611b49565b6104c06106173660046147aa565b61051b6107913660046146d5565b601a6020526000908152604090205481565b6107db6107b13660046146d5565b6010602052600090815260409020546001600160e01b03811690600160e01b900463ffffffff1682565b6040516104a4929190614b91565b6104976107f73660046146d5565b600c6020526000908152604090205460ff1681565b6104c0610536366004614a1c565b6104976108283660046146d5565b600b6020526000908152604090205460ff1681565b6104c061084b3660046146d5565b611da9565b6004546106d0906001600160a01b031681565b61051b6108713660046146d5565b601c6020526000908152604090205481565b600a5461049790600160b01b900460ff1681565b6107db6108a53660046146d5565b6011602052600090815260409020546001600160e01b03811690600160e01b900463ffffffff1682565b6109036108dd3660046146d5565b60096020526000908152604090208054600182015460039092015460ff91821692911683565b6040516104a493929190614bac565b610497610920366004614841565b611e55565b610497610933366004614bd4565b6001600160a01b038082166000908152600960209081526040808320938616835260029093019052205460ff1692915050565b6104976109743660046146b4565b611f15565b61051b60075481565b61051b6109903660046146d5565b60176020526000908152604090205481565b73c00e94cb662c3520282e6f5717214004a7f26888610550565b61051b6109ca3660046146b4565b611fd4565b6109e46a0c097ce7bc90715b34b9f160241b81565b6040516104a49190614c07565b6104c06109ff366004614c8a565b6120fc565b61051b600e5481565b610a20610a1b3660046146d5565b6121bf565b6040516104a49190614d7a565b600a5461049790600160b81b900460ff1681565b610a20612235565b61051b610a57366004614d8b565b601260209081526000928352604080842090915290825290205481565b600254610550906001600160a01b031681565b61051b610a953660046147aa565b612297565b61051b610aa83660046146d5565b60186020526000908152604090205481565b610acd610ac8366004614dbe565b6122fd565b6040516104a49190614e42565b610aed610ae836600461497c565b6123c4565b6040516104a4929190614e53565b61051b610b09366004614d8b565b601360209081526000928352604080842090915290825290205481565b61051b610b343660046146d5565b60146020526000908152604090205481565b61051b610b54366004614a1c565b6125e2565b61051b610b6736600461497c565b612767565b6106d0610b7a36600461480e565b612abf565b600354610550906001600160a01b031681565b61051b610ba0366004614e6e565b612af7565b600a5461049790600160a81b900460ff1681565b61051b60055481565b6104c0610bd03660046146d5565b612c7b565b61051b610be336600461497c565b612cdf565b61051b610bf63660046146d5565b612d1a565b601b546104979060ff1681565b61051b610c163660046146d5565b60196020526000908152604090205481565b600054610550906001600160a01b031681565b6000546001600160a01b03163314610c6e5760405162461bcd60e51b8152600401610c6590614ed1565b60405180910390fd5b601b5460ff1615610c915760405162461bcd60e51b8152600401610c6590614f24565b828114610cb05760405162461bcd60e51b8152600401610c6590614f5b565b60008060008060005b87811015610e3557888882818110610cd357610cd3614f6b565b9050602002016020810190610ce891906146d5565b6001600160a01b0381166000908152601460205260409020549095509350868682818110610d1857610d18614f6b565b90506020020135925083831115610dbb576000610d358585614f97565b6001600160a01b0387166000908152601c6020526040812054919250610d5b8284613031565b6001600160a01b0389166000818152601c60205260409081902083905551919250907f17fea09d9a7ca41b2f9f9118f18f44848a62e9c70d55dd4385131eb2cf1b7e4790610dac9085908590614e53565b60405180910390a28695505050505b8215610e2557610dcb848461303d565b6001600160a01b0386166000818152601460205260409081902083905551919350907f4a5c134e28b537a76546993ea37f3b60d9190476df7356d3842aa40902e20f0490610e1c9087908690614e53565b60405180910390a25b610e2e81614faa565b9050610cb9565b5050601b805460ff1916600117905550505050505050565b6001600160a01b03821660009081526009602052604081205460ff16610e855760405162461bcd60e51b8152600401610c6590615009565b600a546001600160a01b0316331480610ea857506000546001600160a01b031633145b610ec45760405162461bcd60e51b8152600401610c659061505d565b6000546001600160a01b0316331480610edf57506001821515145b610efb5760405162461bcd60e51b8152600401610c659061509a565b6001600160a01b0383166000908152600c602052604090819020805460ff1916841515179055517f71aec636243f9709bb0007ae15e9afb8150ab01716d75fd7573be5cc096e03b090610f5190859085906150c7565b60405180910390a150805b92915050565b604080516001808252818301909252600091602080830190803683370190505090508281600081518110610f9857610f98614f6b565b60200260200101906001600160a01b031690816001600160a01b0316815250506107118183600180611b49565b806001600160a01b031663f851a4406040518163ffffffff1660e01b8152600401602060405180830381865afa158015611003573d6000803e3d6000fd5b505050506040513d601f19601f820116820180604052508101906110279190615100565b6001600160a01b0316336001600160a01b0316146110575760405162461bcd60e51b8152600401610c6590615165565b806001600160a01b031663c1e803346040518163ffffffff1660e01b81526004016020604051808303816000875af1158015611097573d6000803e3d6000fd5b505050506040513d601f19601f820116820180604052508101906110bb9190615180565b156110d85760405162461bcd60e51b8152600401610c65906151cd565b50565b6001600160a01b03841660009081526009602052604081205460ff1661110357506009611191565b60006040518060200160405280876001600160a01b031663aa5af0fd6040518163ffffffff1660e01b8152600401602060405180830381865afa15801561114e573d6000803e3d6000fd5b505050506040513d601f19601f820116820180604052508101906111729190615180565b905290506111808682613049565b61118b86858361323c565b60009150505b949350505050565b6111a16133bb565b6111bd5760405162461bcd60e51b8152600401610c6590615227565b60006111c983836133e4565b905080156111e95760405162461bcd60e51b8152600401610c659061526b565b7f98b2f82a3a07f223a0be64b3d0f47711c64dccd1feafb94aa28156b38cd9695c838360405161121a92919061527b565b60405180910390a1505050565b600a546000906001600160a01b031633148061124d57506000546001600160a01b031633145b6112695760405162461bcd60e51b8152600401610c659061505d565b6000546001600160a01b031633148061128457506001821515145b6112a05760405162461bcd60e51b8152600401610c659061509a565b600a805460ff60b81b1916600160b81b841515021790556040517fef159d9a32b2472e32b098f954f3ce62d232939f1c207070b584df1814de2de0906112e79084906152a5565b60405180910390a15090565b600080546001600160a01b0316331461131e5760405162461bcd60e51b8152600401610c65906152f8565b60058054908390556040517f3b9670cf975d26958e754b57098eaa2ac914d8d2a31b83257997b9f346110fd9906113589083908690614e53565b60405180910390a160005b9392505050565b6000546001600160a01b031633146113945760405162461bcd60e51b8152600401610c659061534b565b601580546001600160a01b038381166001600160a01b03198316179092556040519116907feda98690e518e9a05f8ec6837663e188211b2da8f4906648b323f2c1d4434e29906113e7908390859061535b565b60405180910390a15050565b6001600160a01b03821660009081526009602052604081205460ff1661142b5760405162461bcd60e51b8152600401610c6590615009565b600a546001600160a01b031633148061144e57506000546001600160a01b031633145b61146a5760405162461bcd60e51b8152600401610c659061505d565b6000546001600160a01b031633148061148557506001821515145b6114a15760405162461bcd60e51b8152600401610c659061509a565b6001600160a01b0383166000908152600b602052604090819020805460ff1916841515179055517f71aec636243f9709bb0007ae15e9afb8150ab01716d75fd7573be5cc096e03b090610f519085908590615391565b60008060008060008061150c8a8a8a8a613500565b925092509250826011811115611524576115246151dd565b95509093509150505b9450945094915050565b6001600160a01b0383166000908152600b602052604081205460ff16156115705760405162461bcd60e51b8152600401610c65906153d5565b6001600160a01b03841660009081526009602052604090205460ff1661159a5760095b9050611363565b6115a384613830565b6115ad84846139a8565b6000949350505050565b600080546001600160a01b031633146115d657610f5c6001600b613b48565b60068054908390556040517faeba5a6c40a8ac138134bff1aaa65debf25971188a58804bad717f82f0ec1316906113589083908690614e53565b8015801561161e5750600082115b156106175760405162461bcd60e51b8152600401610c659061540d565b600d818154811061164b57600080fd5b6000918252602090912001546001600160a01b0316905081565b600080546001600160a01b0316331461168457610f5c60016010613b48565b600480546001600160a01b038481166001600160a01b03198316179092556040519116907fd52b2b9b7e9ee655fcb95d2e5b9e0c9f69e7ef2b8e9d2d0ea78402d576d22e2290611358908390869061541d565b6116df6133bb565b6116fb5760405162461bcd60e51b8152600401610c659061546c565b61170482611da9565b8060000361172a576001600160a01b038216600090815260186020526040812055611745565b436001600160a01b0383166000908152601860205260409020555b6001600160a01b03821660008181526017602052604090819020839055517f386537fa92edc3319af95f1f904dcf1900021e4f3f4e08169a577a09076e66b3906117909084906146fc565b60405180910390a25050565b6000806000806000806117b3876000806000613500565b9250925092508260118111156117cb576117cb6151dd565b97919650945092505050565b600080546001600160a01b031633146117f657610f5c60016013613b48565b600a80546001600160a01b038481166001600160a01b0319831681179093556040519116917f0613b6ee6a04f0d09f390e4d9318894b9f6ac7fd83897cd8d18896ba579c401e9161135891849161535b565b6001600160a01b03851660009081526009602052604081205460ff16158061188957506001600160a01b03851660009081526009602052604090205460ff16155b156118985760095b90506119d2565b6040516395dd919360e01b81526000906001600160a01b038816906395dd9193906118c790879060040161479c565b602060405180830381865afa1580156118e4573d6000803e3d6000fd5b505050506040513d601f19601f820116820180604052508101906119089190615180565b905061191387611f15565b1561193d57828110156119385760405162461bcd60e51b8152600401610c65906154c1565b6119cc565b60008061194986613bba565b91935090915060009050826011811115611965576119656151dd565b146119865781601181111561197c5761197c6151dd565b93505050506119d2565b8060000361199557600361197c565b60006119b1604051806020016040528060055481525085613bda565b9050808611156119c85760119450505050506119d2565b5050505b60009150505b95945050505050565b6000546001600160a01b03163314806119fe57506015546001600160a01b031633145b611a1a5760405162461bcd60e51b8152600401610c6590615523565b82818115801590611a2a57508082145b611a465760405162461bcd60e51b8152600401610c6590615557565b60005b82811015611b4057848482818110611a6357611a63614f6b565b9050602002013560166000898985818110611a8057611a80614f6b565b9050602002016020810190611a9591906146b4565b6001600160a01b03168152602081019190915260400160002055868682818110611ac157611ac1614f6b565b9050602002016020810190611ad691906146b4565b6001600160a01b03167f6f1951b2aad10f3fc81b86d91105b413a5b3f847a34bbc5ce1904201b14438f6868684818110611b1257611b12614f6b565b90506020020135604051611b2691906146fc565b60405180910390a280611b3881614faa565b915050611a49565b50505050505050565b60005b8351811015611ce6576000848281518110611b6957611b69614f6b565b6020908102919091018101516001600160a01b0381166000908152600990925260409091205490915060ff16611bb15760405162461bcd60e51b8152600401610c6590615593565b831515600103611c7d5760006040518060200160405280836001600160a01b031663aa5af0fd6040518163ffffffff1660e01b8152600401602060405180830381865afa158015611c06573d6000803e3d6000fd5b505050506040513d601f19601f82011682018060405250810190611c2a9190615180565b90529050611c388282613049565b60005b8751811015611c7a57611c6883898381518110611c5a57611c5a614f6b565b60200260200101518461323c565b80611c7281614faa565b915050611c3b565b50505b821515600103611cd357611c9081613830565b60005b8651811015611cd157611cbf82888381518110611cb257611cb2614f6b565b60200260200101516139a8565b80611cc981614faa565b915050611c93565b505b5080611cde81614faa565b915050611b4c565b5060005b845181101561053657611d54858281518110611d0857611d08614f6b565b602002602001015160146000888581518110611d2657611d26614f6b565b60200260200101516001600160a01b03166001600160a01b03168152602001908152602001600020546133e4565b60146000878481518110611d6a57611d6a614f6b565b60200260200101516001600160a01b03166001600160a01b03168152602001908152602001600020819055508080611da190614faa565b915050611cea565b6001600160a01b038116600090815260176020908152604080832054601890925282205490914391611ddc90839061303d565b9050600081118015611dee5750600083115b15610617576000611dff8285613bf2565b6001600160a01b03861660009081526014602052604081205491925090611e269083613031565b6001600160a01b0387166000908152601460209081526040808320939093556018905220849055505050505050565b600a546000906001600160a01b0316331480611e7b57506000546001600160a01b031633145b611e975760405162461bcd60e51b8152600401610c659061505d565b6000546001600160a01b0316331480611eb257506001821515145b611ece5760405162461bcd60e51b8152600401610c659061509a565b600a805460ff60b01b1916600160b01b841515021790556040517fef159d9a32b2472e32b098f954f3ce62d232939f1c207070b584df1814de2de0906112e79084906155c2565b6001600160a01b038116600090815260096020526040812060010154158015611f5b57506001600160a01b0382166000908152600c602052604090205460ff1615156001145b8015610f5c5750816001600160a01b031663173b99046040518163ffffffff1660e01b8152600401602060405180830381865afa158015611fa0573d6000803e3d6000fd5b505050506040513d601f19601f82011682018060405250810190611fc49190615180565b670de0b6b3a76400001492915050565b600080546001600160a01b03163314611ff357610f5c60016012613b48565b6001600160a01b03821660009081526009602052604090205460ff161561202057610f5c600a6011613b48565b816001600160a01b031663fe9c44ae6040518163ffffffff1660e01b8152600401602060405180830381865afa15801561205e573d6000803e3d6000fd5b505050506040513d601f19601f8201168201806040525081019061208291906155dd565b506001600160a01b03821660009081526009602052604081208054600160ff19918216811783556003830180549092169091558101919091556120c483613bfe565b6120cd83613cbf565b7fcf583bb0c569eb967f806b11601c4cb93c10310485c67add5f8362c2f212321f836040516113589190614a0e565b6121046133bb565b6121205760405162461bcd60e51b8152600401610c659061546c565b82518251811480156121325750815181145b61214e5760405162461bcd60e51b8152600401610c6590615644565b60005b81811015610536576121af85828151811061216e5761216e614f6b565b602002602001015185838151811061218857612188614f6b565b60200260200101518584815181106121a2576121a2614f6b565b6020026020010151613d83565b6121b881614faa565b9050612151565b6001600160a01b038116600090815260086020908152604080832080548251818502810185019093528083526060949383018282801561222857602002820191906000526020600020905b81546001600160a01b0316815260019091019060200180831161220a575b5093979650505050505050565b6060600d80548060200260200160405190810160405280929190818152602001828054801561228d57602002820191906000526020600020905b81546001600160a01b0316815260019091019060200180831161226f575b5050505050905090565b600a54600090600160b01b900460ff16156122c45760405162461bcd60e51b8152600401610c659061567d565b60006122d1868685613f2e565b905080156122e0579050611191565b6122e986613830565b6122f386866139a8565b61118b86856139a8565b80516060906000816001600160401b0381111561231c5761231c614562565b604051908082528060200260200182016040528015612345578160200160208202803683370190505b50905060005b828110156123bc57600085828151811061236757612367614f6b565b6020026020010151905061237b8133613fe6565b601181111561238c5761238c6151dd565b83838151811061239e5761239e614f6b565b602090810291909101015250806123b481614faa565b91505061234b565b509392505050565b6004805460405163fc57d4df60e01b8152600092839283926001600160a01b039091169163fc57d4df916123fa918a9101614a0e565b602060405180830381865afa158015612417573d6000803e3d6000fd5b505050506040513d601f19601f8201168201806040525081019061243b9190615180565b6004805460405163fc57d4df60e01b81529293506000926001600160a01b039091169163fc57d4df91612470918a9101614a0e565b602060405180830381865afa15801561248d573d6000803e3d6000fd5b505050506040513d601f19601f820116820180604052508101906124b19190615180565b90508115806124be575080155b156124d257600d60009350935050506125da565b6000866001600160a01b031663182df0f56040518163ffffffff1660e01b8152600401602060405180830381865afa158015612512573d6000803e3d6000fd5b505050506040513d601f19601f820116820180604052508101906125369190615180565b905060006125506040518060200160405280600081525090565b60408051602080820183526000808352835180830185529081528351808301855260065481528451928301909452888252919261258c916140dc565b92506125b46040518060200160405280888152506040518060200160405280888152506140dc565b91506125c08383614124565b90506125cc818b613bda565b600099509750505050505050505b935093915050565b600a54600090600160b81b900460ff161561260f5760405162461bcd60e51b8152600401610c65906156b3565b6001600160a01b03861660009081526009602052604090205460ff16158061265057506001600160a01b03851660009081526009602052604090205460ff16155b1561265c576009611891565b846001600160a01b0316635fe3b5676040518163ffffffff1660e01b8152600401602060405180830381865afa15801561269a573d6000803e3d6000fd5b505050506040513d601f19601f820116820180604052508101906126be91906156ce565b6001600160a01b0316866001600160a01b0316635fe3b5676040518163ffffffff1660e01b8152600401602060405180830381865afa158015612705573d6000803e3d6000fd5b505050506040513d601f19601f8201168201806040525081019061272991906156ce565b6001600160a01b03161461273e576002611891565b61274786613830565b61275186846139a8565b61275b86856139a8565b60009695505050505050565b6001600160a01b0383166000908152600c602052604081205460ff16156127a05760405162461bcd60e51b8152600401610c6590615716565b6001600160a01b03841660009081526009602052604090205460ff166127c7576009611593565b6001600160a01b038085166000908152600960209081526040808320938716835260029093019052205460ff1661289c57336001600160a01b038516146128205760405162461bcd60e51b8152600401610c6590615752565b600061282c3385613fe6565b90506000816011811115612842576128426151dd565b1461286157806011811115612859576128596151dd565b915050611363565b6001600160a01b038086166000908152600960209081526040808320938816835260029093019052205460ff1661289a5761289a615762565b505b6004805460405163fc57d4df60e01b81526001600160a01b039091169163fc57d4df916128cb91889101614a0e565b602060405180830381865afa1580156128e8573d6000803e3d6000fd5b505050506040513d601f19601f8201168201806040525081019061290c9190615180565b60000361291a57600d611593565b6001600160a01b03841660009081526016602052604090205480156129cf576000856001600160a01b03166347bd37186040518163ffffffff1660e01b8152600401602060405180830381865afa158015612979573d6000803e3d6000fd5b505050506040513d601f19601f8201168201806040525081019061299d9190615180565b905060006129ab8286613031565b90508281106129cc5760405162461bcd60e51b8152600401610c65906157ac565b50505b6000806129df8688600088613500565b919350909150600090508260118111156129fb576129fb6151dd565b14612a1c57816011811115612a1257612a126151dd565b9350505050611363565b8015612a29576004612a12565b60006040518060200160405280896001600160a01b031663aa5af0fd6040518163ffffffff1660e01b8152600401602060405180830381865afa158015612a74573d6000803e3d6000fd5b505050506040513d601f19601f82011682018060405250810190612a989190615180565b90529050612aa68882613049565b612ab188888361323c565b600098975050505050505050565b60086020528160005260406000208181548110612adb57600080fd5b6000918252602090912001546001600160a01b03169150829050565b600080546001600160a01b03163314612b1d57612b1660016006613b48565b9050610f5c565b6001600160a01b0383166000908152600960205260409020805460ff16612b5257612b4a60096007613b48565b915050610f5c565b60408051602080820183528582528251908101909252670c7d713b49da0000825290612b8081835190511090565b15612b9b57612b9160066008613b48565b9350505050610f5c565b8415801590612c1757506004805460405163fc57d4df60e01b81526001600160a01b039091169163fc57d4df91612bd4918a9101614a0e565b602060405180830381865afa158015612bf1573d6000803e3d6000fd5b505050506040513d601f19601f82011682018060405250810190612c159190615180565b155b15612c2857612b91600d6009613b48565b600183018054908690556040517f70483e6592cd5182d45ac970e05bc62cdcc90e9d8ef2c2dbe686cf383bcd7fc590612c6690899084908a906157bc565b60405180910390a16000979650505050505050565b6110d881600d805480602002602001604051908101604052809291908181526020018280548015612cd557602002820191906000526020600020905b81546001600160a01b03168152600190910190602001808311612cb7575b5050505050610f62565b600080612ced858585613f2e565b90508015612cfc579050611363565b612d0585613830565b612d0f85856139a8565b600095945050505050565b6000808290506000806000836001600160a01b031663c37f68e2336040518263ffffffff1660e01b8152600401612d51919061479c565b608060405180830381865afa158015612d6e573d6000803e3d6000fd5b505050506040513d601f19601f82011682018060405250810190612d9291906157ca565b5092509250925082600014612db95760405162461bcd60e51b8152600401610c6590615864565b8015612dd557612dcb600c6002613b48565b9695505050505050565b6000612de2873385613f2e565b90508015612e0257612df7600e60038361415e565b979650505050505050565b6001600160a01b0385166000908152600960209081526040808320338452600281019092529091205460ff16612e4057600098975050505050505050565b3360009081526002820160209081526040808320805460ff191690556008825280832080548251818502810185019093528083529192909190830182828015612eb257602002820191906000526020600020905b81546001600160a01b03168152600190910190602001808311612e94575b5050835193945083925060009150505b82811015612f1657896001600160a01b0316848281518110612ee657612ee6614f6b565b60200260200101516001600160a01b031603612f0457809150612f16565b80612f0e81614faa565b915050612ec2565b50818110612f2657612f26615762565b33600090815260086020526040902080548190612f4590600190614f97565b81548110612f5557612f55614f6b565b9060005260206000200160009054906101000a90046001600160a01b0316818381548110612f8557612f85614f6b565b9060005260206000200160006101000a8154816001600160a01b0302191690836001600160a01b0316021790555080805480612fc357612fc3615874565b600082815260209020810160001990810180546001600160a01b03191690550190556040517fe699a64c18b07ac5b7301aa273f36a2287239eb9501d81950672794afba29a0d90613017908c90339061588a565b60405180910390a160009c9b505050505050505050505050565b60006113638284615898565b60006113638284614f97565b6001600160a01b0382166000908152601160209081526040808320601990925282205490916130ae435b6040518060400160405280601c81526020017f626c6f636b206e756d62657220657863656564732033322062697473000000008152506141cf565b83549091506000906130d09063ffffffff80851691600160e01b90041661303d565b90506000811180156130e25750600083115b15613211576000613154876001600160a01b03166347bd37186040518163ffffffff1660e01b8152600401602060405180830381865afa15801561312a573d6000803e3d6000fd5b505050506040513d601f19601f8201168201806040525081019061314e9190615180565b876141ff565b905060006131628386613bf2565b90506000808311613182576040518060200160405280600081525061318c565b61318c828461421d565b604080516020810190915288546001600160e01b031681529091506131ef906131b59083614258565b5160408051808201909152601a81527f6e657720696e64657820657863656564732032323420626974730000000000006020820152614284565b6001600160e01b0316600160e01b63ffffffff87160217875550610631915050565b801561063157835463ffffffff8316600160e01b026001600160e01b03909116178455505050505050565b6001600160a01b03838116600090815260116020908152604080832080546013845282852095881685529490925290912080546001600160e01b039093169081905590918015801561329c57506a0c097ce7bc90715b34b9f160241b8210155b156132b257506a0c097ce7bc90715b34b9f160241b5b600060405180602001604052806132c9858561303d565b8152509050600061331c886001600160a01b03166395dd9193896040518263ffffffff1660e01b81526004016132ff919061479c565b602060405180830381865afa15801561312a573d6000803e3d6000fd5b9050600061332a82846142ab565b6001600160a01b038916600090815260146020526040812054919250906133519083613031565b6001600160a01b03808b16600081815260146020526040908190208490555192935091908c16907f1fc3ecc087d8d2d15e23d0032af5a47059c3892d003d8e139fdcb6bb327c99a6906133a79086908b90614e53565b60405180910390a350505050505050505050565b600080546001600160a01b03163314806133df57506002546001600160a01b031633145b905090565b6040516370a0823160e01b815260009073c00e94cb662c3520282e6f5717214004a7f2688890829082906370a082319061342290309060040161479c565b602060405180830381865afa15801561343f573d6000803e3d6000fd5b505050506040513d601f19601f820116820180604052508101906134639190615180565b90506000841180156134755750808411155b156134f75760405163a9059cbb60e01b81526001600160a01b0383169063a9059cbb906134a8908890889060040161527b565b6020604051808303816000875af11580156134c7573d6000803e3d6000fd5b505050506040513d601f19601f820116820180604052508101906134eb91906155dd565b50600092505050610f5c565b50919392505050565b600080600061350d614341565b6001600160a01b03881660009081526008602090815260408083208054825181850281018501909352808352849383018282801561357457602002820191906000526020600020905b81546001600160a01b03168152600190910190602001808311613556575b5050505050905060005b81518110156137da57600082828151811061359b5761359b614f6b565b60200260200101519050806001600160a01b031663c37f68e28d6040518263ffffffff1660e01b81526004016135d1919061479c565b608060405180830381865afa1580156135ee573d6000803e3d6000fd5b505050506040513d601f19601f8201168201806040525081019061361291906157ca565b6080890152606088015260408701529350831561363e57600f600080975097509750505050505061152d565b60408051602080820183526001600160a01b0380851660009081526009835284902060010154835260c0890192909252825190810183526080880151815260e088015260048054925163fc57d4df60e01b8152929091169163fc57d4df916136a891859101614a0e565b602060405180830381865afa1580156136c5573d6000803e3d6000fd5b505050506040513d601f19601f820116820180604052508101906136e99190615180565b60a0860181905260000361370c57600d600080975097509750505050505061152d565b604080516020810190915260a0860151815261010086015260c085015160e08601516137469161373b916140dc565b8661010001516140dc565b6101208601819052604086015186516137609291906142d4565b85526101008501516060860151602087015161377d9291906142d4565b60208601526001600160a01b03808c16908216036137c7576137a98561012001518b87602001516142d4565b602086018190526101008601516137c1918b906142d4565b60208601525b50806137d281614faa565b91505061357e565b5060208301518351111561380b57602083015183516000916137fb91614f97565b600095509550955050505061152d565b600080846000015185602001516138229190614f97565b95509550955050505061152d565b6001600160a01b0381166000908152601060209081526040808320601a909252822054909161385e43613073565b83549091506000906138809063ffffffff80851691600160e01b90041661303d565b90506000811180156138925750600083115b1561397e576000856001600160a01b03166318160ddd6040518163ffffffff1660e01b8152600401602060405180830381865afa1580156138d7573d6000803e3d6000fd5b505050506040513d601f19601f820116820180604052508101906138fb9190615180565b905060006139098386613bf2565b905060008083116139295760405180602001604052806000815250613933565b613933828461421d565b604080516020810190915288546001600160e01b0316815290915061395c906131b59083614258565b6001600160e01b0316600160e01b63ffffffff87160217875550610536915050565b801561053657835463ffffffff8316600160e01b026001600160e01b039091161784555050505050565b6001600160a01b03828116600090815260106020908152604080832080546012845282852095871685529490925290912080546001600160e01b0390931690819055909180158015613a0857506a0c097ce7bc90715b34b9f160241b8210155b15613a1e57506a0c097ce7bc90715b34b9f160241b5b60006040518060200160405280613a35858561303d565b90526040516370a0823160e01b81529091506000906001600160a01b038816906370a0823190613a6990899060040161479c565b602060405180830381865afa158015613a86573d6000803e3d6000fd5b505050506040513d601f19601f82011682018060405250810190613aaa9190615180565b90506000613ab882846142ab565b6001600160a01b03881660009081526014602052604081205491925090613adf9083613031565b6001600160a01b03808a16600081815260146020526040908190208490555192935091908b16907f2caecd17d02f56fa897705dcc740da2d237c373f70686f4e0d9bd3bf0400ea7a90613b359086908b90614e53565b60405180910390a3505050505050505050565b60007f45b96fe442630264581b197e84bbada861235052c5a1aadfff9ea4e40a969aa0836011811115613b7d57613b7d6151dd565b836013811115613b8f57613b8f6151dd565b6000604051613ba0939291906158c0565b60405180910390a1826011811115611363576113636151dd565b6000806000613bcd846000806000613500565b9250925092509193909250565b600080613be784846142f5565b90506111918161431d565b600061136382846158e8565b60005b600d54811015613c6c57816001600160a01b0316600d8281548110613c2857613c28614f6b565b6000918252602090912001546001600160a01b031603613c5a5760405162461bcd60e51b8152600401610c6590615932565b80613c6481614faa565b915050613c01565b50600d80546001810182556000919091527fd7b6990105719101dabeb77144f2a3385c8033acd3af97e9423a695e81ad1eb50180546001600160a01b0319166001600160a01b0392909216919091179055565b6000613cca43613073565b6001600160a01b0383166000908152601060209081526040808320601190925282208154939450909290916001600160e01b039091169003613d255781546001600160e01b0319166a0c097ce7bc90715b34b9f160241b1782555b80546001600160e01b0316600003613d565780546001600160e01b0319166a0c097ce7bc90715b34b9f160241b1781555b805463ffffffff909316600160e01b026001600160e01b0393841681179091558154909216909117905550565b6001600160a01b0383166000908152600960205260409020805460ff16613dbc5760405162461bcd60e51b8152600401610c6590615976565b6001600160a01b0384166000908152601a60205260409020548314613e3857613de484613830565b6001600160a01b0384166000818152601a602052604090819020859055517fdeafccd0c0b768b2529f7dcbbe58e155d6023059150b7490ed4535cc3744b92d90613e2f9086906146fc565b60405180910390a25b6001600160a01b03841660009081526019602052604090205482146106175760006040518060200160405280866001600160a01b031663aa5af0fd6040518163ffffffff1660e01b8152600401602060405180830381865afa158015613ea2573d6000803e3d6000fd5b505050506040513d601f19601f82011682018060405250810190613ec69190615180565b90529050613ed48582613049565b6001600160a01b03851660008181526019602052604090819020859055517f20af8e791cc98f74b2d7a391c80980ca8e5aebf3d4060bf581997b6acae2e53790613f1f9086906146fc565b60405180910390a25050505050565b6001600160a01b03831660009081526009602052604081205460ff16613f55576009611593565b6001600160a01b038085166000908152600960209081526040808320938716835260029093019052205460ff16613f8d576000611593565b600080613f9d8587866000613500565b91935090915060009050826011811115613fb957613fb96151dd565b14613fd957816011811115613fd057613fd06151dd565b92505050611363565b801561275b576004613fd0565b6001600160a01b0382166000908152600960205260408120805460ff16614011576009915050610f5c565b6001600160a01b038316600090815260028201602052604090205460ff161515600103614042576000915050610f5c565b6001600160a01b03838116600090815260028301602090815260408083208054600160ff19909116811790915560088352818420805491820181558452919092200180546001600160a01b03191692871692909217909155517f3ab23ab0d51cccc0c3085aec51f99228625aa1a922b3a8ca89a26b0f2027a1a5906140ca908690869061588a565b60405180910390a15060009392505050565b6040805160208101909152600081526040518060200160405280670de0b6b3a764000061411186600001518660000151613bf2565b61411b919061599c565b90529392505050565b604080516020810190915260008152604051806020016040528061411b6141578660000151670de0b6b3a7640000613bf2565b8551614335565b60007f45b96fe442630264581b197e84bbada861235052c5a1aadfff9ea4e40a969aa0846011811115614193576141936151dd565b8460138111156141a5576141a56151dd565b846040516141b593929190614954565b60405180910390a1836011811115611191576111916151dd565b60008164010000000084106141f75760405162461bcd60e51b8152600401610c659190615a06565b509192915050565b600061136361421684670de0b6b3a7640000613bf2565b8351614335565b604080516020810190915260008152604051806020016040528061411b614252866a0c097ce7bc90715b34b9f160241b613bf2565b85614335565b604080516020810190915260008152604051806020016040528061411b85600001518560000151613031565b600081600160e01b84106141f75760405162461bcd60e51b8152600401610c659190615a06565b60006a0c097ce7bc90715b34b9f160241b6142ca848460000151613bf2565b611363919061599c565b6000806142e185856142f5565b90506119d26142ef8261431d565b84613031565b604080516020810190915260008152604051806020016040528061411b856000015185613bf2565b8051600090610f5c90670de0b6b3a76400009061599c565b6000611363828461599c565b60405180610140016040528060008152602001600081526020016000815260200160008152602001600081526020016000815260200161438d6040518060200160405280600081525090565b81526020016143a86040518060200160405280600081525090565b81526020016143c36040518060200160405280600081525090565b81526020016143de6040518060200160405280600081525090565b905290565b8015155b82525050565b60208101610f5c82846143e3565b60008083601f84011261441057614410600080fd5b5081356001600160401b0381111561442a5761442a600080fd5b60208301915083602082028301111561444557614445600080fd5b9250929050565b6000806000806040858703121561446557614465600080fd5b84356001600160401b0381111561447e5761447e600080fd5b61448a878288016143fb565b945094505060208501356001600160401b038111156144ab576144ab600080fd5b6144b7878288016143fb565b95989497509550505050565b60006001600160a01b038216610f5c565b6000610f5c826144c3565b6144e8816144d4565b81146110d857600080fd5b8035610f5c816144df565b8015156144e8565b8035610f5c816144fe565b6000806040838503121561452757614527600080fd5b600061453385856144f3565b925050602061454485828601614506565b9150509250929050565b6144e8816144c3565b8035610f5c8161454e565b634e487b7160e01b600052604160045260246000fd5b601f19601f83011681018181106001600160401b038211171561459d5761459d614562565b6040525050565b60006145af60405190565b90506145bb8282614578565b919050565b60006001600160401b038211156145d9576145d9614562565b5060209081020190565b60006145f66145f1846145c0565b6145a4565b8381529050602080820190840283018581111561461557614615600080fd5b835b81811015614639578061462a88826144f3565b84525060209283019201614617565b5050509392505050565b600082601f83011261465757614657600080fd5b81356111918482602086016145e3565b6000806040838503121561467d5761467d600080fd5b60006146898585614557565b92505060208301356001600160401b038111156146a8576146a8600080fd5b61454485828601614643565b6000602082840312156146c9576146c9600080fd5b600061119184846144f3565b6000602082840312156146ea576146ea600080fd5b60006111918484614557565b806143e7565b60208101610f5c82846146f6565b806144e8565b8035610f5c8161470a565b600080600080600060a0868803121561473657614736600080fd5b60006147428888614557565b955050602061475388828901614557565b945050604061476488828901614557565b935050606061477588828901614710565b925050608061478688828901614710565b9150509295509295909350565b6143e7816144c3565b60208101610f5c8284614793565b600080600080608085870312156147c3576147c3600080fd5b60006147cf8787614557565b94505060206147e087828801614557565b93505060406147f187828801614557565b925050606061480287828801614710565b91505092959194509250565b6000806040838503121561482457614824600080fd5b60006148308585614557565b925050602061454485828601614710565b60006020828403121561485657614856600080fd5b60006111918484614506565b60006020828403121561487757614877600080fd5b60006111918484614710565b6000806000806080858703121561489c5761489c600080fd5b60006148a88787614557565b94505060206148b987828801614557565b93505060406147f187828801614710565b60008060008060008060c087890312156148e6576148e6600080fd5b60006148f28989614557565b965050602061490389828a01614557565b955050604061491489828a01614557565b945050606061492589828a01614557565b935050608061493689828a01614710565b92505060a061494789828a01614710565b9150509295509295509295565b6060810161496282866146f6565b61496f60208301856146f6565b61119160408301846146f6565b60008060006060848603121561499457614994600080fd5b60006149a08686614557565b93505060206149b186828701614557565b92505060406149c286828701614710565b9150509250925092565b6000610f5c6001600160a01b0383166149e3565b90565b6001600160a01b031690565b6000610f5c826149cc565b6000610f5c826149ef565b6143e7816149fa565b60208101610f5c8284614a05565b600080600080600060a08688031215614a3757614a37600080fd5b6000614a438888614557565b9550506020614a5488828901614557565b9450506040614a6588828901614557565b935050606061477588828901614557565b6000614a846145f1846145c0565b83815290506020808201908402830185811115614aa357614aa3600080fd5b835b818110156146395780614ab88882614557565b84525060209283019201614aa5565b600082601f830112614adb57614adb600080fd5b8135611191848260208601614a76565b60008060008060808587031215614b0457614b04600080fd5b84356001600160401b03811115614b1d57614b1d600080fd5b614b2987828801614ac7565b94505060208501356001600160401b03811115614b4857614b48600080fd5b614b5487828801614643565b9350506040614b6587828801614506565b925050606061480287828801614506565b6001600160e01b0381166143e7565b63ffffffff81166143e7565b60408101614b9f8285614b76565b6113636020830184614b85565b60608101614bba82866143e3565b614bc760208301856146f6565b61119160408301846143e3565b60008060408385031215614bea57614bea600080fd5b6000614bf68585614557565b9250506020614544858286016144f3565b60208101610f5c8284614b76565b6000614c236145f1846145c0565b83815290506020808201908402830185811115614c4257614c42600080fd5b835b818110156146395780614c578882614710565b84525060209283019201614c44565b600082601f830112614c7a57614c7a600080fd5b8135611191848260208601614c15565b600080600060608486031215614ca257614ca2600080fd5b83356001600160401b03811115614cbb57614cbb600080fd5b614cc786828701614643565b93505060208401356001600160401b03811115614ce657614ce6600080fd5b614cf286828701614c66565b92505060408401356001600160401b03811115614d1157614d11600080fd5b6149c286828701614c66565b6000614d298383614a05565b505060200190565b6000614d3b825190565b80845260209384019383018060005b83811015614d6f578151614d5e8882614d1d565b975060208301925050600101614d4a565b509495945050505050565b602080825281016113638184614d31565b60008060408385031215614da157614da1600080fd5b6000614dad8585614557565b925050602061454485828601614557565b600060208284031215614dd357614dd3600080fd5b81356001600160401b03811115614dec57614dec600080fd5b61119184828501614ac7565b6000614d2983836146f6565b6000614e0e825190565b80845260209384019383018060005b83811015614d6f578151614e318882614df8565b975060208301925050600101614e1d565b602080825281016113638184614e04565b60408101614e6182856146f6565b61136360208301846146f6565b60008060408385031215614e8457614e84600080fd5b600061483085856144f3565b602181526000602082017f4f6e6c792061646d696e2063616e2063616c6c20746869732066756e6374696f8152603760f91b602082015291505b5060400190565b60208082528101610f5c81614e90565b602681526000602082017f416c72656164792065786563757465642074686973206f6e652d6f66662066758152653731ba34b7b760d11b60208201529150614eca565b60208082528101610f5c81614ee1565b600d81526000602082016c125b9d985b1a59081a5b9c1d5d609a1b815291505b5060200190565b60208082528101610f5c81614f34565b634e487b7160e01b600052603260045260246000fd5b634e487b7160e01b600052601160045260246000fd5b81810381811115610f5c57610f5c614f81565b60006000198203614fbd57614fbd614f81565b5060010190565b602881526000602082017f63616e6e6f742070617573652061206d61726b65742074686174206973206e6f8152671d081b1a5cdd195960c21b60208201529150614eca565b60208082528101610f5c81614fc4565b602781526000602082017f6f6e6c7920706175736520677561726469616e20616e642061646d696e2063618152666e20706175736560c81b60208201529150614eca565b60208082528101610f5c81615019565b60168152600060208201756f6e6c792061646d696e2063616e20756e706175736560501b81529150614f54565b60208082528101610f5c8161506d565b6006815260006020820165426f72726f7760d01b81529150614f54565b606081016150d58285614a05565b81810360208301526150e6816150aa565b905061136360408301846143e3565b8051610f5c8161454e565b60006020828403121561511557615115600080fd5b600061119184846150f5565b602781526000602082017f6f6e6c7920756e6974726f6c6c65722061646d696e2063616e206368616e676581526620627261696e7360c81b60208201529150614eca565b60208082528101610f5c81615121565b8051610f5c8161470a565b60006020828403121561519557615195600080fd5b60006111918484615175565b601581526000602082017418da185b99d9481b9bdd08185d5d1a1bdc9a5e9959605a1b81529150614f54565b60208082528101610f5c816151a1565b634e487b7160e01b600052602160045260246000fd5b601981526000602082017f6f6e6c792061646d696e2063616e206772616e7420636f6d700000000000000081529150614f54565b60208082528101610f5c816151f3565b601b81526000602082017f696e73756666696369656e7420636f6d7020666f72206772616e74000000000081529150614f54565b60208082528101610f5c81615237565b60408101614e618285614793565b60058152600060208201645365697a6560d81b81529150614f54565b604080825281016152b581615289565b9050610f5c60208301846143e3565b601f81526000602082017f6f6e6c792061646d696e2063616e2073657420636c6f736520666163746f720081529150614f54565b60208082528101610f5c816152c4565b602681526000602082017f6f6e6c792061646d696e2063616e2073657420626f72726f772063617020677581526530b93234b0b760d11b60208201529150614eca565b60208082528101610f5c81615308565b604081016153698285614793565b6113636020830184614793565b6004815260006020820163135a5b9d60e21b81529150614f54565b6060810161539f8285614a05565b81810360208301526150e681615376565b600e81526000602082016d1b5a5b9d081a5cc81c185d5cd95960921b81529150614f54565b60208082528101610f5c816153b0565b601181526000602082017072656465656d546f6b656e73207a65726f60781b81529150614f54565b60208082528101610f5c816153e5565b6040810161542b8285614a05565b6113636020830184614a05565b601d81526000602082017f6f6e6c792061646d696e2063616e2073657420636f6d7020737065656400000081529150614f54565b60208082528101610f5c81615438565b602881526000602082017f43616e206e6f74207265706179206d6f7265207468616e2074686520746f74618152676c20626f72726f7760c01b60208201529150614eca565b60208082528101610f5c8161547c565b603581526000602082017f6f6e6c792061646d696e206f7220626f72726f772063617020677561726469618152746e2063616e2073657420626f72726f77206361707360581b60208201529150614eca565b60208082528101610f5c816154d1565b600d81526000602082016c1a5b9d985b1a59081a5b9c1d5d609a1b81529150614f54565b60208082528101610f5c81615533565b60158152600060208201741b585c9ad95d081b5d5cdd081899481b1a5cdd1959605a1b81529150614f54565b60208082528101610f5c81615567565b60088152600060208201672a3930b739b332b960c11b81529150614f54565b604080825281016152b5816155a3565b8051610f5c816144fe565b6000602082840312156155f2576155f2600080fd5b600061119184846155d2565b602981526000602082017f436f6d7074726f6c6c65723a3a5f736574436f6d7053706565647320696e76618152681b1a59081a5b9c1d5d60ba1b60208201529150614eca565b60208082528101610f5c816155fe565b60128152600060208201711d1c985b9cd9995c881a5cc81c185d5cd95960721b81529150614f54565b60208082528101610f5c81615654565b600f81526000602082016e1cd95a5e99481a5cc81c185d5cd959608a1b81529150614f54565b60208082528101610f5c8161568d565b8051610f5c816144df565b6000602082840312156156e3576156e3600080fd5b600061119184846156c3565b601081526000602082016f189bdc9c9bddc81a5cc81c185d5cd95960821b81529150614f54565b60208082528101610f5c816156ef565b601581526000602082017439b2b73232b91036bab9ba1031329031aa37b5b2b760591b81529150614f54565b60208082528101610f5c81615726565b634e487b7160e01b600052600160045260246000fd5b601981526000602082017f6d61726b657420626f72726f772063617020726561636865640000000000000081529150614f54565b60208082528101610f5c81615778565b606081016149628286614a05565b600080600080608085870312156157e3576157e3600080fd5b60006157ef8787615175565b945050602061580087828801615175565b935050604061581187828801615175565b925050606061480287828801615175565b602581526000602082017f657869744d61726b65743a206765744163636f756e74536e617073686f742066815264185a5b195960da1b60208201529150614eca565b60208082528101610f5c81615822565b634e487b7160e01b600052603160045260246000fd5b604081016153698285614a05565b80820180821115610f5c57610f5c614f81565b6000610f5c6149e08381565b6143e7816158ab565b606081016158ce82866146f6565b6158db60208301856146f6565b61119160408301846158b7565b81810280821583820485141761590057615900614f81565b5092915050565b60148152600060208201731b585c9ad95d08185b1c9958591e48185919195960621b81529150614f54565b60208082528101610f5c81615907565b601981526000602082017f636f6d70206d61726b6574206973206e6f74206c69737465640000000000000081529150614f54565b60208082528101610f5c81615942565b634e487b7160e01b600052601260045260246000fd5b6000826159ab576159ab615986565b500490565b60005b838110156159cb5781810151838201526020016159b3565b50506000910152565b60006159de825190565b8084526020840193506159f58185602086016159b0565b601f01601f19169290920192915050565b6020808252810161136381846159d456fea2646970667358221220aa941704e2b8e2c4770fddca0b3651ec89916b4afcc3d52183663601a98b355c64736f6c63430008130033",
  "linkReferences": {},
  "deployedLinkReferences": {}
}