{
  "_format": "hh-sol-artifact-1",
  "contractName": "JumpRateModelV2",
  "sourceName": "contracts/JumpRateModelV2.sol",
  "address": "0xd26cCEdaCb5E1166e3285ba5EF9817f45F6bfA76",
  "abi": [
    {
      "inputs": [
        {
          "internalType": "uint256",
          "name": "baseRatePerYear",
          "type": "uint256"
        },
        {
          "internalType": "uint256",
          "name": "multiplierPerYear",
          "type": "uint256"
        },
        {
          "internalType": "uint256",
          "name": "jumpMultiplierPerYear",
          "type": "uint256"
        },
        {
          "internalType": "uint256",
          "name": "kink_",
          "type": "uint256"
        },
        {
          "internalType": "address",
          "name": "owner_",
          "type": "address"
        }
      ],
      "stateMutability": "nonpayable",
      "type": "constructor"
    },
    {
      "anonymous": false,
      "inputs": [
        {
          "indexed": false,
          "internalType": "uint256",
          "name": "baseRatePerBlock",
          "type": "uint256"
        },
        {
          "indexed": false,
          "internalType": "uint256",
          "name": "multiplierPerBlock",
          "type": "uint256"
        },
        {
          "indexed": false,
          "internalType": "uint256",
          "name": "jumpMultiplierPerBlock",
          "type": "uint256"
        },
        {
          "indexed": false,
          "internalType": "uint256",
          "name": "kink",
          "type": "uint256"
        }
      ],
      "name": "NewInterestParams",
      "type": "event"
    },
    {
      "inputs": [],
      "name": "baseRatePerBlock",
      "outputs": [
        {
          "internalType": "uint256",
          "name": "",
          "type": "uint256"
        }
      ],
      "stateMutability": "view",
      "type": "function"
    },
    {
      "inputs": [],
      "name": "blocksPerYear",
      "outputs": [
        {
          "internalType": "uint256",
          "name": "",
          "type": "uint256"
        }
      ],
      "stateMutability": "view",
      "type": "function"
    },
    {
      "inputs": [
        {
          "internalType": "uint256",
          "name": "cash",
          "type": "uint256"
        },
        {
          "internalType": "uint256",
          "name": "borrows",
          "type": "uint256"
        },
        {
          "internalType": "uint256",
          "name": "reserves",
          "type": "uint256"
        }
      ],
      "name": "getBorrowRate",
      "outputs": [
        {
          "internalType": "uint256",
          "name": "",
          "type": "uint256"
        }
      ],
      "stateMutability": "view",
      "type": "function"
    },
    {
      "inputs": [
        {
          "internalType": "uint256",
          "name": "cash",
          "type": "uint256"
        },
        {
          "internalType": "uint256",
          "name": "borrows",
          "type": "uint256"
        },
        {
          "internalType": "uint256",
          "name": "reserves",
          "type": "uint256"
        },
        {
          "internalType": "uint256",
          "name": "reserveFactorMantissa",
          "type": "uint256"
        }
      ],
      "name": "getSupplyRate",
      "outputs": [
        {
          "internalType": "uint256",
          "name": "",
          "type": "uint256"
        }
      ],
      "stateMutability": "view",
      "type": "function"
    },
    {
      "inputs": [],
      "name": "isInterestRateModel",
      "outputs": [
        {
          "internalType": "bool",
          "name": "",
          "type": "bool"
        }
      ],
      "stateMutability": "view",
      "type": "function"
    },
    {
      "inputs": [],
      "name": "jumpMultiplierPerBlock",
      "outputs": [
        {
          "internalType": "uint256",
          "name": "",
          "type": "uint256"
        }
      ],
      "stateMutability": "view",
      "type": "function"
    },
    {
      "inputs": [],
      "name": "kink",
      "outputs": [
        {
          "internalType": "uint256",
          "name": "",
          "type": "uint256"
        }
      ],
      "stateMutability": "view",
      "type": "function"
    },
    {
      "inputs": [],
      "name": "multiplierPerBlock",
      "outputs": [
        {
          "internalType": "uint256",
          "name": "",
          "type": "uint256"
        }
      ],
      "stateMutability": "view",
      "type": "function"
    },
    {
      "inputs": [],
      "name": "owner",
      "outputs": [
        {
          "internalType": "address",
          "name": "",
          "type": "address"
        }
      ],
      "stateMutability": "view",
      "type": "function"
    },
    {
      "inputs": [
        {
          "internalType": "uint256",
          "name": "baseRatePerYear",
          "type": "uint256"
        },
        {
          "internalType": "uint256",
          "name": "multiplierPerYear",
          "type": "uint256"
        },
        {
          "internalType": "uint256",
          "name": "jumpMultiplierPerYear",
          "type": "uint256"
        },
        {
          "internalType": "uint256",
          "name": "kink_",
          "type": "uint256"
        }
      ],
      "name": "updateJumpRateModel",
      "outputs": [],
      "stateMutability": "nonpayable",
      "type": "function"
    },
    {
      "inputs": [
        {
          "internalType": "uint256",
          "name": "cash",
          "type": "uint256"
        },
        {
          "internalType": "uint256",
          "name": "borrows",
          "type": "uint256"
        },
        {
          "internalType": "uint256",
          "name": "reserves",
          "type": "uint256"
        }
      ],
      "name": "utilizationRate",
      "outputs": [
        {
          "internalType": "uint256",
          "name": "",
          "type": "uint256"
        }
      ],
      "stateMutability": "pure",
      "type": "function"
    }
  ],
  "bytecode": "0x60806040523480156200001157600080fd5b50604051620008dd380380620008dd833981016040819052620000349162000165565b600080546001600160a01b0319166001600160a01b0383161790558484848484620000628585858562000072565b5050505050505050505062000285565b62000081622014808562000215565b6002556200009381622014806200022c565b620000a7670de0b6b3a7640000856200022c565b620000b3919062000215565b600155620000c5622014808362000215565b600381905560048290556002546001546040517f6960ab234c7ef4b0c9197100f5393cfcde7c453ac910a27bd2000aa1dd4c068d936200010993929186906200024e565b60405180910390a150505050565b805b81146200012557600080fd5b50565b8051620001358162000117565b92915050565b60006001600160a01b03821662000135565b62000119816200013b565b805162000135816200014d565b600080600080600060a08688031215620001825762000182600080fd5b600062000190888862000128565b9550506020620001a38882890162000128565b9450506040620001b68882890162000128565b9350506060620001c98882890162000128565b9250506080620001dc8882890162000158565b9150509295509295909350565b634e487b7160e01b600052601260045260246000fd5b634e487b7160e01b600052601160045260246000fd5b600082620002275762000227620001e9565b500490565b818102808215838204851417620002475762000247620001ff565b5092915050565b848152608081016200026260208301869052565b6200026f60408301859052565b6200027c60608301849052565b95945050505050565b61064880620002956000396000f3fe608060405234801561001057600080fd5b50600436106100a95760003560e01c80638da5cb5b116100715780638da5cb5b1461011d578063a385fb961461013d578063b816881614610147578063b9f9850a1461015a578063f14039de14610163578063fd2da3391461016c57600080fd5b806315f24053146100ae5780632037f3e7146100d75780632191f92a146100ec5780636e71e2d8146101015780638726bb8914610114575b600080fd5b6100c16100bc3660046103fd565b610175565b6040516100ce9190610455565b60405180910390f35b6100ea6100e5366004610463565b61018c565b005b6100f4600181565b6040516100ce91906104cf565b6100c161010f3660046103fd565b6101d1565b6100c160015481565b600054610130906001600160a01b031681565b6040516100ce91906104f7565b6100c16220148081565b6100c1610155366004610463565b610214565b6100c160035481565b6100c160025481565b6100c160045481565b6000610182848484610290565b90505b9392505050565b6000546001600160a01b031633146101bf5760405162461bcd60e51b81526004016101b690610505565b60405180910390fd5b6101cb8484848461035b565b50505050565b6000826000036101e357506000610185565b816101ee8486610565565b6101f89190610578565b61020a670de0b6b3a76400008561058b565b61018291906105c0565b60008061022983670de0b6b3a7640000610578565b90506000610238878787610290565b90506000670de0b6b3a764000061024f848461058b565b61025991906105c0565b9050670de0b6b3a7640000816102708a8a8a6101d1565b61027a919061058b565b61028491906105c0565b98975050505050505050565b60008061029e8585856101d1565b905060045481116102df57600254670de0b6b3a7640000600154836102c3919061058b565b6102cd91906105c0565b6102d79190610565565b915050610185565b6000600254670de0b6b3a76400006001546004546102fd919061058b565b61030791906105c0565b6103119190610565565b90506000600454836103239190610578565b905081670de0b6b3a76400006003548361033d919061058b565b61034791906105c0565b6103519190610565565b9350505050610185565b61036862201480856105c0565b600255610378816220148061058b565b61038a670de0b6b3a76400008561058b565b61039491906105c0565b6001556103a462201480836105c0565b600381905560048290556002546001546040517f6960ab234c7ef4b0c9197100f5393cfcde7c453ac910a27bd2000aa1dd4c068d936103e693929186906105d4565b60405180910390a150505050565b80355b92915050565b60008060006060848603121561041557610415600080fd5b600061042186866103f4565b9350506020610432868287016103f4565b9250506040610443868287016103f4565b9150509250925092565b805b82525050565b602081016103f7828461044d565b6000806000806080858703121561047c5761047c600080fd5b600061048887876103f4565b9450506020610499878288016103f4565b93505060406104aa878288016103f4565b92505060606104bb878288016103f4565b91505092959194509250565b80151561044f565b602081016103f782846104c7565b60006001600160a01b0382166103f7565b61044f816104dd565b602081016103f782846104ee565b602080825281016103f781602681527f6f6e6c7920746865206f776e6572206d61792063616c6c20746869732066756e60208201526531ba34b7b71760d11b604082015260600190565b634e487b7160e01b600052601160045260246000fd5b808201808211156103f7576103f761054f565b818103818111156103f7576103f761054f565b8181028082158382048514176105a3576105a361054f565b5092915050565b634e487b7160e01b600052601260045260246000fd5b6000826105cf576105cf6105aa565b500490565b608081016105e2828761044d565b6105ef602083018661044d565b6105fc604083018561044d565b610609606083018461044d565b9594505050505056fea264697066735822122061f5bb6cd302d61014df23ca66e31bce3490d4be96343a062a7bd675a56eb0f764736f6c63430008130033",
  "linkReferences": {},
  "deployedLinkReferences": {}
}