{
  "_format": "hh-sol-artifact-1",
  "contractName": "Maximillion",
  "sourceName": "contracts/Maximillion.sol",
  "abi": [
    {
      "inputs": [
        {
          "internalType": "contract CEther",
          "name": "cEther_",
          "type": "address"
        }
      ],
      "stateMutability": "nonpayable",
      "type": "constructor"
    },
    {
      "inputs": [],
      "name": "cEther",
      "outputs": [
        {
          "internalType": "contract CEther",
          "name": "",
          "type": "address"
        }
      ],
      "stateMutability": "view",
      "type": "function"
    },
    {
      "inputs": [
        {
          "internalType": "address",
          "name": "borrower",
          "type": "address"
        }
      ],
      "name": "repayBehalf",
      "outputs": [],
      "stateMutability": "payable",
      "type": "function"
    },
    {
      "inputs": [
        {
          "internalType": "address",
          "name": "borrower",
          "type": "address"
        },
        {
          "internalType": "contract CEther",
          "name": "cEther_",
          "type": "address"
        }
      ],
      "name": "repayBehalfExplicit",
      "outputs": [],
      "stateMutability": "payable",
      "type": "function"
    }
  ],
  "bytecode": "0x608060405234801561001057600080fd5b506040516104ac3803806104ac83398101604081905261002f91610094565b600080546001600160a01b0319166001600160a01b03929092169190911790556100bd565b60006001600160a01b0382165b92915050565b600061006182610054565b61007b81610067565b811461008657600080fd5b50565b805161006181610072565b6000602082840312156100a9576100a9600080fd5b60006100b58484610089565b949350505050565b6103e0806100cc6000396000f3fe6080604052600436106100345760003560e01c806319b68c0014610039578063367b7f051461006f5780639f35c3d514610084575b600080fd5b34801561004557600080fd5b50600054610059906001600160a01b031681565b6040516100669190610275565b60405180910390f35b61008261007d3660046102d2565b610097565b005b61008261009236600461030f565b610223565b6040516305eff7ef60e21b815234906000906001600160a01b038416906317bfdfbc906100c8908790600401610341565b6020604051808303816000875af11580156100e7573d6000803e3d6000fd5b505050506040513d601f19601f8201168201806040525081019061010b9190610360565b9050808211156101bc5760405163e597461960e01b81526001600160a01b0384169063e5974619908390610143908890600401610341565b6000604051808303818588803b15801561015c57600080fd5b505af1158015610170573d6000803e3d6000fd5b5050505050336001600160a01b03166108fc828461018e9190610397565b6040518115909202916000818181858888f193505050501580156101b6573d6000803e3d6000fd5b5061021d565b60405163e597461960e01b81526001600160a01b0384169063e59746199084906101ea908890600401610341565b6000604051808303818588803b15801561020357600080fd5b505af1158015610217573d6000803e3d6000fd5b50505050505b50505050565b60005461023a9082906001600160a01b0316610097565b50565b60006001600160a01b0382165b92915050565b600061024a8261023d565b600061024a82610250565b61026f8161025b565b82525050565b6020810161024a8284610266565b60006001600160a01b03821661024a565b61029d81610283565b811461023a57600080fd5b803561024a81610294565b600061024a82610283565b61029d816102b3565b803561024a816102be565b600080604083850312156102e8576102e8600080fd5b60006102f485856102a8565b9250506020610305858286016102c7565b9150509250929050565b60006020828403121561032457610324600080fd5b600061033084846102a8565b949350505050565b61026f81610283565b6020810161024a8284610338565b8061029d565b805161024a8161034f565b60006020828403121561037557610375600080fd5b60006103308484610355565b634e487b7160e01b600052601160045260246000fd5b8181038181111561024a5761024a61038156fea26469706673582212208ace1328875371354001aa5ea631555eea87b6e05f3fd1d794d11181ddc9a6c664736f6c63430008130033",
  "linkReferences": {},
  "deployedLinkReferences": {}
}